{
  "_format": "hh-sol-artifact-1",
  "contractName": "MIPWhitelists",
  "sourceName": "contracts/MIPWhitelists.sol",
  "abi": [
    {
      "inputs": [],
      "stateMutability": "nonpayable",
      "type": "constructor"
    },
    {
      "anonymous": false,
      "inputs": [
        {
          "indexed": true,
          "internalType": "address",
          "name": "previousOwner",
          "type": "address"
        },
        {
          "indexed": true,
          "internalType": "address",
          "name": "newOwner",
          "type": "address"
        }
      ],
      "name": "OwnershipTransferred",
      "type": "event"
    },
    {
      "anonymous": false,
      "inputs": [
        {
          "indexed": true,
          "internalType": "bytes32",
          "name": "role",
          "type": "bytes32"
        },
        {
          "indexed": true,
          "internalType": "bytes32",
          "name": "previousAdminRole",
          "type": "bytes32"
        },
        {
          "indexed": true,
          "internalType": "bytes32",
          "name": "newAdminRole",
          "type": "bytes32"
        }
      ],
      "name": "RoleAdminChanged",
      "type": "event"
    },
    {
      "anonymous": false,
      "inputs": [
        {
          "indexed": true,
          "internalType": "bytes32",
          "name": "role",
          "type": "bytes32"
        },
        {
          "indexed": true,
          "internalType": "address",
          "name": "account",
          "type": "address"
        },
        {
          "indexed": true,
          "internalType": "address",
          "name": "sender",
          "type": "address"
        }
      ],
      "name": "RoleGranted",
      "type": "event"
    },
    {
      "anonymous": false,
      "inputs": [
        {
          "indexed": true,
          "internalType": "bytes32",
          "name": "role",
          "type": "bytes32"
        },
        {
          "indexed": true,
          "internalType": "address",
          "name": "account",
          "type": "address"
        },
        {
          "indexed": true,
          "internalType": "address",
          "name": "sender",
          "type": "address"
        }
      ],
      "name": "RoleRevoked",
      "type": "event"
    },
    {
      "inputs": [],
      "name": "DEFAULT_ADMIN_ROLE",
      "outputs": [
        {
          "internalType": "bytes32",
          "name": "",
          "type": "bytes32"
        }
      ],
      "stateMutability": "view",
      "type": "function"
    },
    {
      "inputs": [
        {
          "internalType": "bytes32",
          "name": "role",
          "type": "bytes32"
        }
      ],
      "name": "getRoleAdmin",
      "outputs": [
        {
          "internalType": "bytes32",
          "name": "",
          "type": "bytes32"
        }
      ],
      "stateMutability": "view",
      "type": "function"
    },
    {
      "inputs": [
        {
          "internalType": "bytes32",
          "name": "role",
          "type": "bytes32"
        },
        {
          "internalType": "address",
          "name": "account",
          "type": "address"
        }
      ],
      "name": "grantRole",
      "outputs": [],
      "stateMutability": "nonpayable",
      "type": "function"
    },
    {
      "inputs": [
        {
          "internalType": "bytes32",
          "name": "role",
          "type": "bytes32"
        },
        {
          "internalType": "address",
          "name": "account",
          "type": "address"
        }
      ],
      "name": "hasRole",
      "outputs": [
        {
          "internalType": "bool",
          "name": "",
          "type": "bool"
        }
      ],
      "stateMutability": "view",
      "type": "function"
    },
    {
      "inputs": [],
      "name": "mipContractAddress",
      "outputs": [
        {
          "internalType": "address",
          "name": "",
          "type": "address"
        }
      ],
      "stateMutability": "view",
      "type": "function"
    },
    {
      "inputs": [],
      "name": "owner",
      "outputs": [
        {
          "internalType": "address",
          "name": "",
          "type": "address"
        }
      ],
      "stateMutability": "view",
      "type": "function"
    },
    {
      "inputs": [
        {
          "internalType": "uint256",
          "name": "value",
          "type": "uint256"
        },
        {
          "internalType": "uint128",
          "name": "mintPrice",
          "type": "uint128"
        },
        {
          "internalType": "uint8",
          "name": "whitelistIdx",
          "type": "uint8"
        },
        {
          "internalType": "uint8",
          "name": "quantity",
          "type": "uint8"
        },
        {
          "internalType": "address",
          "name": "to",
          "type": "address"
        },
        {
          "internalType": "bytes32[]",
          "name": "_merkleProof",
          "type": "bytes32[]"
        },
        {
          "internalType": "uint256",
          "name": "collectionPhase",
          "type": "uint256"
        }
      ],
      "name": "registerValidWhitelistRedeem",
      "outputs": [],
      "stateMutability": "nonpayable",
      "type": "function"
    },
    {
      "inputs": [],
      "name": "renounceOwnership",
      "outputs": [],
      "stateMutability": "nonpayable",
      "type": "function"
    },
    {
      "inputs": [
        {
          "internalType": "bytes32",
          "name": "role",
          "type": "bytes32"
        },
        {
          "internalType": "address",
          "name": "account",
          "type": "address"
        }
      ],
      "name": "renounceRole",
      "outputs": [],
      "stateMutability": "nonpayable",
      "type": "function"
    },
    {
      "inputs": [
        {
          "internalType": "bytes32",
          "name": "role",
          "type": "bytes32"
        },
        {
          "internalType": "address",
          "name": "account",
          "type": "address"
        }
      ],
      "name": "revokeRole",
      "outputs": [],
      "stateMutability": "nonpayable",
      "type": "function"
    },
    {
      "inputs": [
        {
          "internalType": "address",
          "name": "_mipContractAddress",
          "type": "address"
        }
      ],
      "name": "setMIPContractAddress",
      "outputs": [],
      "stateMutability": "nonpayable",
      "type": "function"
    },
    {
      "inputs": [
        {
          "internalType": "bytes32",
          "name": "_supremeMerkleRoot",
          "type": "bytes32"
        },
        {
          "internalType": "bytes32",
          "name": "_ogMerkleRoot",
          "type": "bytes32"
        },
        {
          "internalType": "bytes32",
          "name": "_tierOneMerkleRoot",
          "type": "bytes32"
        }
      ],
      "name": "setMerkleRoots",
      "outputs": [],
      "stateMutability": "nonpayable",
      "type": "function"
    },
    {
      "inputs": [
        {
          "internalType": "address",
          "name": "wallet",
          "type": "address"
        },
        {
          "internalType": "bool",
          "name": "promote",
          "type": "bool"
        }
      ],
      "name": "setTeamMember",
      "outputs": [],
      "stateMutability": "nonpayable",
      "type": "function"
    },
    {
      "inputs": [
        {
          "internalType": "uint8[3]",
          "name": "_whitelistClaims",
          "type": "uint8[3]"
        }
      ],
      "name": "setWhitelistClaims",
      "outputs": [],
      "stateMutability": "nonpayable",
      "type": "function"
    },
    {
      "inputs": [
        {
          "internalType": "bytes4",
          "name": "interfaceId",
          "type": "bytes4"
        }
      ],
      "name": "supportsInterface",
      "outputs": [
        {
          "internalType": "bool",
          "name": "",
          "type": "bool"
        }
      ],
      "stateMutability": "view",
      "type": "function"
    },
    {
      "inputs": [
        {
          "internalType": "address",
          "name": "newOwner",
          "type": "address"
        }
      ],
      "name": "transferOwnership",
      "outputs": [],
      "stateMutability": "nonpayable",
      "type": "function"
    },
    {
      "inputs": [
        {
          "internalType": "address",
          "name": "",
          "type": "address"
        }
      ],
      "name": "userInfo",
      "outputs": [
        {
          "internalType": "uint16",
          "name": "whitelistClaimsLeft",
          "type": "uint16"
        },
        {
          "internalType": "enum MIPWhitelists.MIPType",
          "name": "whitelistPhase",
          "type": "uint8"
        }
      ],
      "stateMutability": "view",
      "type": "function"
    },
    {
      "inputs": [
        {
          "internalType": "address payable",
          "name": "_to",
          "type": "address"
        },
        {
          "internalType": "uint32",
          "name": "_amount",
          "type": "uint32"
        }
      ],
      "name": "withdrawEther",
      "outputs": [],
      "stateMutability": "nonpayable",
      "type": "function"
    }
  ],
  "bytecode": "0x60e060405260036080818152600260a052600160c05262000024916005919062000483565b503480156200003257600080fd5b506200003e33620000b2565b6200004b60003362000104565b6200006c600073b1d8a6fd75e501aaacfcb1507afcbfcaade75d9362000104565b620000ac7f4504b9dfd7400a1522f49a8b4a100552da9236849581fd59b7363eb48c6a474c739d26262acc4dd72e4a251478f0619d21d159ab5862000114565b62000682565b600180546001600160a01b038381166001600160a01b0319831681179093556040519116919082907f8be0079c531659141344cd1fd0a4f28419497f9722a3daafe3b4186f6b6457e090600090a35050565b62000110828262000143565b5050565b600082815260208190526040902060010154620001328133620001e3565b6200013e838362000143565b505050565b6000828152602081815260408083206001600160a01b038516845290915290205460ff1662000110576000828152602081815260408083206001600160a01b03851684529091529020805460ff191660011790556200019f3390565b6001600160a01b0316816001600160a01b0316837f2f8788117e7eff1d82e926ec794901d17c78024a50270940304540a733656f0d60405160405180910390a45050565b6000828152602081815260408083206001600160a01b038516845290915290205460ff1662000110576200022d816001600160a01b031660146200028760201b62000a231760201c565b6200024383602062000a2362000287821b17811c565b6040516020016200025692919062000534565b60408051601f198184030181529082905262461bcd60e51b82526200027e91600401620005ad565b60405180910390fd5b6060600062000298836002620005fd565b620002a5906002620005e2565b6001600160401b03811115620002cb57634e487b7160e01b600052604160045260246000fd5b6040519080825280601f01601f191660200182016040528015620002f6576020820181803683370190505b509050600360fc1b816000815181106200032057634e487b7160e01b600052603260045260246000fd5b60200101906001600160f81b031916908160001a905350600f60fb1b816001815181106200035e57634e487b7160e01b600052603260045260246000fd5b60200101906001600160f81b031916908160001a905350600062000384846002620005fd565b62000391906001620005e2565b90505b60018111156200042b576f181899199a1a9b1b9c1cb0b131b232b360811b85600f1660108110620003d557634e487b7160e01b600052603260045260246000fd5b1a60f81b828281518110620003fa57634e487b7160e01b600052603260045260246000fd5b60200101906001600160f81b031916908160001a90535060049490941c93620004238162000652565b905062000394565b5083156200047c5760405162461bcd60e51b815260206004820181905260248201527f537472696e67733a20686578206c656e67746820696e73756666696369656e7460448201526064016200027e565b9392505050565b6001830191839082156200050b5791602002820160005b83821115620004da57835183826101000a81548160ff021916908360ff16021790555092602001926001016020816000010492830192600103026200049a565b8015620005095782816101000a81549060ff0219169055600101602081600001049283019260010302620004da565b505b50620005199291506200051d565b5090565b5b808211156200051957600081556001016200051e565b60007f416363657373436f6e74726f6c3a206163636f756e7420000000000000000000825283516200056e8160178501602088016200061f565b7001034b99036b4b9b9b4b733903937b6329607d1b6017918401918201528351620005a18160288401602088016200061f565b01602801949350505050565b6000602082528251806020840152620005ce8160408501602087016200061f565b601f01601f19169190910160400192915050565b60008219821115620005f857620005f86200066c565b500190565b60008160001904831182151516156200061a576200061a6200066c565b500290565b60005b838110156200063c57818101518382015260200162000622565b838111156200064c576000848401525b50505050565b6000816200066457620006646200066c565b506000190190565b634e487b7160e01b600052601160045260246000fd5b6113bf80620006926000396000f3fe608060405234801561001057600080fd5b50600436106101155760003560e01c8063715018a6116100a2578063d2986b3111610071578063d2986b311461026c578063d547741f1461027f578063d5f51b6d14610292578063e9a3d938146102a5578063f2fde38b146102b857610115565b8063715018a6146102245780638da5cb5b1461022c57806391d1485414610251578063a217fddf1461026457610115565b80631959a002116100e95780631959a0021461017d578063248a9ca3146101ba5780632f2ff15d146101eb57806336568abe146101fe57806360bba03d1461021157610115565b8062f9ae541461011a57806301ffc9a71461012f578063113c4eca14610157578063123d1a4e1461016a575b600080fd5b61012d610128366004611053565b6102cb565b005b61014261013d36600461107e565b6102e1565b60405190151581526020015b60405180910390f35b61012d610165366004610ff1565b61031a565b61012d610178366004610f64565b61039e565b6101ac61018b366004610f64565b60076020526000908152604090205461ffff81169062010000900460ff1682565b60405161014e92919061123d565b6101dd6101c8366004611017565b60009081526020819052604090206001015490565b60405190815260200161014e565b61012d6101f936600461102f565b6103c8565b61012d61020c36600461102f565b6103f4565b61012d61021f366004610fc0565b610477565b61012d6104de565b6001546001600160a01b03165b6040516001600160a01b03909116815260200161014e565b61014261025f36600461102f565b610544565b6101dd600081565b61012d61027a366004610f80565b61056d565b61012d61028d36600461102f565b6105b0565b600654610239906001600160a01b031681565b61012d6102b33660046110a6565b6105d6565b61012d6102c6366004610f64565b610958565b6102d3610c0c565b600292909255600355600455565b60006001600160e01b03198216637965db0b60e01b148061031257506301ffc9a760e01b6001600160e01b03198316145b90505b919050565b610322610c0c565b61032f602082018261117b565b6005805460ff191660ff92909216919091179055610353604082016020830161117b565b6005805460ff929092166101000261ff001990921691909117905561037e606082016040830161117b565b6005805460ff92909216620100000262ff00001990921691909117905550565b6103a6610c0c565b600680546001600160a01b0319166001600160a01b0392909216919091179055565b6000828152602081905260409020600101546103e581335b610c87565b6103ef8383610ceb565b505050565b6001600160a01b03811633146104695760405162461bcd60e51b815260206004820152602f60248201527f416363657373436f6e74726f6c3a2063616e206f6e6c792072656e6f756e636560448201526e103937b632b9903337b91039b2b63360891b60648201526084015b60405180910390fd5b6104738282610d6f565b5050565b61047f610dd4565b80156104b4576104af7f4504b9dfd7400a1522f49a8b4a100552da9236849581fd59b7363eb48c6a474c836103c8565b610473565b6104737f4504b9dfd7400a1522f49a8b4a100552da9236849581fd59b7363eb48c6a474c836105b0565b6001546001600160a01b031633146105385760405162461bcd60e51b815260206004820181905260248201527f4f776e61626c653a2063616c6c6572206973206e6f7420746865206f776e65726044820152606401610460565b6105426000610ddf565b565b6000918252602082815260408084206001600160a01b0393909316845291905290205460ff1690565b610575610dd4565b6040516001600160a01b0383169063ffffffff831680156108fc02916000818181858888f193505050501580156103ef573d6000803e3d6000fd5b6000828152602081905260409020600101546105cc81336103e0565b6103ef8383610d6f565b6105de610e31565b60038660ff16106106245760405162461bcd60e51b815260206004820152601060248201526f496478206f7574206f662072616e676560801b6044820152606401610460565b6001600160a01b0384166000908152600760205260409020805462010000900460ff16600481111561066657634e487b7160e01b600052602160045260246000fd5b821461071157805461ffff19168155600182141561069b578054600190829062ff0000191662010000835b0217905550610711565b60028214156106bb578054600290829062ff000019166201000083610691565b60038214156106db578054600390829062ff000019166201000083610691565b60405162461bcd60e51b815260206004820152600b60248201526a57726f6e6720706861736560a81b6044820152606401610460565b805461ffff1660ff8114156107595760405162461bcd60e51b815260206004820152600e60248201526d139bc818db185a5b5cc81b19599d60921b6044820152606401610460565b61ffff811661087c576040516bffffffffffffffffffffffff19606088901b1660208201526000906034016040516020818303038152906040528051906020012090506107ff86868080602002602001604051908101604052809392919081815260200183836020028082843760009201919091525060029250505060ff8c16600381106107f757634e487b7160e01b600052603260045260246000fd5b015483610e83565b61083e5760405162461bcd60e51b815260206004820152601060248201526f139bdd081a5b881dda1a5d195b1a5cdd60821b6044820152606401610460565b60058960ff166003811061086257634e487b7160e01b600052603260045260246000fd5b602081049091015460ff601f9092166101000a9004169150505b8061ffff168760ff1611156108c95760405162461bcd60e51b8152602060048201526013602482015272115e18d959591cc818db185a5b5cc81b19599d606a1b6044820152606401610460565b6108d68960ff891661128b565b6001600160801b03168a10156109215760405162461bcd60e51b815260206004820152601060248201526f2bb937b7339032ba3432b91038ba3c9760811b6044820152606401610460565b61092e60ff8816826112d9565b905061ffff811661093d575060ff5b815461ffff191661ffff919091161790555050505050505050565b6001546001600160a01b031633146109b25760405162461bcd60e51b815260206004820181905260248201527f4f776e61626c653a2063616c6c6572206973206e6f7420746865206f776e65726044820152606401610460565b6001600160a01b038116610a175760405162461bcd60e51b815260206004820152602660248201527f4f776e61626c653a206e6577206f776e657220697320746865207a65726f206160448201526564647265737360d01b6064820152608401610460565b610a2081610ddf565b50565b60606000610a328360026112ba565b610a3d906002611273565b67ffffffffffffffff811115610a6357634e487b7160e01b600052604160045260246000fd5b6040519080825280601f01601f191660200182016040528015610a8d576020820181803683370190505b509050600360fc1b81600081518110610ab657634e487b7160e01b600052603260045260246000fd5b60200101906001600160f81b031916908160001a905350600f60fb1b81600181518110610af357634e487b7160e01b600052603260045260246000fd5b60200101906001600160f81b031916908160001a9053506000610b178460026112ba565b610b22906001611273565b90505b6001811115610bb6576f181899199a1a9b1b9c1cb0b131b232b360811b85600f1660108110610b6457634e487b7160e01b600052603260045260246000fd5b1a60f81b828281518110610b8857634e487b7160e01b600052603260045260246000fd5b60200101906001600160f81b031916908160001a90535060049490941c93610baf8161132c565b9050610b25565b508315610c055760405162461bcd60e51b815260206004820181905260248201527f537472696e67733a20686578206c656e67746820696e73756666696369656e746044820152606401610460565b9392505050565b610c367f4504b9dfd7400a1522f49a8b4a100552da9236849581fd59b7363eb48c6a474c33610544565b80610c475750610c47600033610544565b6105425760405162461bcd60e51b81526020600482015260116024820152704e6f7420726571756972656420726f6c6560781b6044820152606401610460565b610c918282610544565b61047357610ca9816001600160a01b03166014610a23565b610cb4836020610a23565b604051602001610cc5929190611195565b60408051601f198184030181529082905262461bcd60e51b82526104609160040161120a565b610cf58282610544565b610473576000828152602081815260408083206001600160a01b03851684529091529020805460ff19166001179055610d2b3390565b6001600160a01b0316816001600160a01b0316837f2f8788117e7eff1d82e926ec794901d17c78024a50270940304540a733656f0d60405160405180910390a45050565b610d798282610544565b15610473576000828152602081815260408083206001600160a01b0385168085529252808320805460ff1916905551339285917ff6391f5c32d9c69d2a47ea670b442974b53935d1edc7fd64eb21e047a839171b9190a45050565b610c47600033610544565b600180546001600160a01b038381166001600160a01b0319831681179093556040519116919082907f8be0079c531659141344cd1fd0a4f28419497f9722a3daafe3b4186f6b6457e090600090a35050565b6006546001600160a01b031633146105425760405162461bcd60e51b8152602060048201526015602482015274139bdd081c995c5d5a5c99590818dbdb9d1c9858dd605a1b6044820152606401610460565b600082610e908584610e99565b14949350505050565b600081815b8451811015610f4b576000858281518110610ec957634e487b7160e01b600052603260045260246000fd5b60200260200101519050808311610f0b576040805160208101859052908101829052606001604051602081830303815290604052805190602001209250610f38565b60408051602081018390529081018490526060016040516020818303038152906040528051906020012092505b5080610f4381611343565b915050610e9e565b509392505050565b803560ff8116811461031557600080fd5b600060208284031215610f75578081fd5b8135610c0581611374565b60008060408385031215610f92578081fd5b8235610f9d81611374565b9150602083013563ffffffff81168114610fb5578182fd5b809150509250929050565b60008060408385031215610fd2578182fd5b8235610fdd81611374565b915060208301358015158114610fb5578182fd5b600060608284031215611002578081fd5b82606083011115611011578081fd5b50919050565b600060208284031215611028578081fd5b5035919050565b60008060408385031215611041578182fd5b823591506020830135610fb581611374565b600080600060608486031215611067578081fd5b505081359360208301359350604090920135919050565b60006020828403121561108f578081fd5b81356001600160e01b031981168114610c05578182fd5b60008060008060008060008060e0898b0312156110c1578384fd5b8835975060208901356001600160801b03811681146110de578485fd5b96506110ec60408a01610f53565b95506110fa60608a01610f53565b9450608089013561110a81611374565b935060a089013567ffffffffffffffff80821115611126578485fd5b818b0191508b601f830112611139578485fd5b813581811115611147578586fd5b8c60208260051b850101111561115b578586fd5b60208301955080945050505060c089013590509295985092959890939650565b60006020828403121561118c578081fd5b610c0582610f53565b60007f416363657373436f6e74726f6c3a206163636f756e7420000000000000000000825283516111cd8160178501602088016112fc565b7001034b99036b4b9b9b4b733903937b6329607d1b60179184019182015283516111fe8160288401602088016112fc565b01602801949350505050565b60006020825282518060208401526112298160408501602087016112fc565b601f01601f19169190910160400192915050565b61ffff83168152604081016005831061126657634e487b7160e01b600052602160045260246000fd5b8260208301529392505050565b600082198211156112865761128661135e565b500190565b60006001600160801b03808316818516818304811182151516156112b1576112b161135e565b02949350505050565b60008160001904831182151516156112d4576112d461135e565b500290565b600061ffff838116908316818110156112f4576112f461135e565b039392505050565b60005b838110156113175781810151838201526020016112ff565b83811115611326576000848401525b50505050565b60008161133b5761133b61135e565b506000190190565b60006000198214156113575761135761135e565b5060010190565b634e487b7160e01b600052601160045260246000fd5b6001600160a01b0381168114610a2057600080fdfea2646970667358221220abbab0ec9229ff1de091c9af533cd8f5ef51fcb7d9f4696cd735db4d8e5358ad64736f6c63430008030033",
  "linkReferences": {},
  "deployedLinkReferences": {}
}