{
  "_format": "hh-sol-artifact-1",
  "contractName": "MechIdentityProtocol",
  "sourceName": "contracts/MechIdentityProtocol.sol",
  "abi": [
    {
      "inputs": [],
      "stateMutability": "nonpayable",
      "type": "constructor"
    },
    {
      "anonymous": false,
      "inputs": [
        {
          "indexed": true,
          "internalType": "address",
          "name": "account",
          "type": "address"
        },
        {
          "indexed": true,
          "internalType": "address",
          "name": "operator",
          "type": "address"
        },
        {
          "indexed": false,
          "internalType": "bool",
          "name": "approved",
          "type": "bool"
        }
      ],
      "name": "ApprovalForAll",
      "type": "event"
    },
    {
      "anonymous": false,
      "inputs": [
        {
          "indexed": false,
          "internalType": "uint32",
          "name": "firstTokenId",
          "type": "uint32"
        },
        {
          "indexed": false,
          "internalType": "uint8",
          "name": "claimAmount",
          "type": "uint8"
        },
        {
          "indexed": true,
          "internalType": "address",
          "name": "account",
          "type": "address"
        }
      ],
      "name": "Claimed",
      "type": "event"
    },
    {
      "anonymous": false,
      "inputs": [
        {
          "indexed": false,
          "internalType": "uint256[]",
          "name": "burnedMipIds",
          "type": "uint256[]"
        },
        {
          "indexed": false,
          "internalType": "uint256[]",
          "name": "forgedMipIds",
          "type": "uint256[]"
        },
        {
          "indexed": false,
          "internalType": "uint256",
          "name": "metadataQuantity",
          "type": "uint256"
        },
        {
          "indexed": true,
          "internalType": "address",
          "name": "to",
          "type": "address"
        },
        {
          "indexed": true,
          "internalType": "address",
          "name": "teamAccountUsed",
          "type": "address"
        }
      ],
      "name": "GarageOperation",
      "type": "event"
    },
    {
      "anonymous": false,
      "inputs": [
        {
          "indexed": true,
          "internalType": "address",
          "name": "previousOwner",
          "type": "address"
        },
        {
          "indexed": true,
          "internalType": "address",
          "name": "newOwner",
          "type": "address"
        }
      ],
      "name": "OwnershipTransferred",
      "type": "event"
    },
    {
      "anonymous": false,
      "inputs": [
        {
          "indexed": false,
          "internalType": "address",
          "name": "account",
          "type": "address"
        }
      ],
      "name": "Paused",
      "type": "event"
    },
    {
      "anonymous": false,
      "inputs": [
        {
          "indexed": true,
          "internalType": "bytes32",
          "name": "role",
          "type": "bytes32"
        },
        {
          "indexed": true,
          "internalType": "bytes32",
          "name": "previousAdminRole",
          "type": "bytes32"
        },
        {
          "indexed": true,
          "internalType": "bytes32",
          "name": "newAdminRole",
          "type": "bytes32"
        }
      ],
      "name": "RoleAdminChanged",
      "type": "event"
    },
    {
      "anonymous": false,
      "inputs": [
        {
          "indexed": true,
          "internalType": "bytes32",
          "name": "role",
          "type": "bytes32"
        },
        {
          "indexed": true,
          "internalType": "address",
          "name": "account",
          "type": "address"
        },
        {
          "indexed": true,
          "internalType": "address",
          "name": "sender",
          "type": "address"
        }
      ],
      "name": "RoleGranted",
      "type": "event"
    },
    {
      "anonymous": false,
      "inputs": [
        {
          "indexed": true,
          "internalType": "bytes32",
          "name": "role",
          "type": "bytes32"
        },
        {
          "indexed": true,
          "internalType": "address",
          "name": "account",
          "type": "address"
        },
        {
          "indexed": true,
          "internalType": "address",
          "name": "sender",
          "type": "address"
        }
      ],
      "name": "RoleRevoked",
      "type": "event"
    },
    {
      "anonymous": false,
      "inputs": [
        {
          "indexed": false,
          "internalType": "uint32",
          "name": "firstTokenId",
          "type": "uint32"
        },
        {
          "indexed": false,
          "internalType": "uint16",
          "name": "redeemAmount",
          "type": "uint16"
        },
        {
          "indexed": false,
          "internalType": "uint16",
          "name": "ticketAmount",
          "type": "uint16"
        },
        {
          "indexed": true,
          "internalType": "address",
          "name": "account",
          "type": "address"
        }
      ],
      "name": "TicketRedeemed",
      "type": "event"
    },
    {
      "anonymous": false,
      "inputs": [
        {
          "indexed": true,
          "internalType": "address",
          "name": "operator",
          "type": "address"
        },
        {
          "indexed": true,
          "internalType": "address",
          "name": "from",
          "type": "address"
        },
        {
          "indexed": true,
          "internalType": "address",
          "name": "to",
          "type": "address"
        },
        {
          "indexed": false,
          "internalType": "uint256[]",
          "name": "ids",
          "type": "uint256[]"
        },
        {
          "indexed": false,
          "internalType": "uint256[]",
          "name": "values",
          "type": "uint256[]"
        }
      ],
      "name": "TransferBatch",
      "type": "event"
    },
    {
      "anonymous": false,
      "inputs": [
        {
          "indexed": true,
          "internalType": "address",
          "name": "operator",
          "type": "address"
        },
        {
          "indexed": true,
          "internalType": "address",
          "name": "from",
          "type": "address"
        },
        {
          "indexed": true,
          "internalType": "address",
          "name": "to",
          "type": "address"
        },
        {
          "indexed": false,
          "internalType": "uint256",
          "name": "id",
          "type": "uint256"
        },
        {
          "indexed": false,
          "internalType": "uint256",
          "name": "value",
          "type": "uint256"
        }
      ],
      "name": "TransferSingle",
      "type": "event"
    },
    {
      "anonymous": false,
      "inputs": [
        {
          "indexed": false,
          "internalType": "string",
          "name": "value",
          "type": "string"
        },
        {
          "indexed": true,
          "internalType": "uint256",
          "name": "id",
          "type": "uint256"
        }
      ],
      "name": "URI",
      "type": "event"
    },
    {
      "anonymous": false,
      "inputs": [
        {
          "indexed": false,
          "internalType": "address",
          "name": "account",
          "type": "address"
        }
      ],
      "name": "Unpaused",
      "type": "event"
    },
    {
      "anonymous": false,
      "inputs": [
        {
          "indexed": false,
          "internalType": "uint32",
          "name": "firstTokenId",
          "type": "uint32"
        },
        {
          "indexed": false,
          "internalType": "uint16",
          "name": "redeemAmount",
          "type": "uint16"
        },
        {
          "indexed": false,
          "internalType": "enum MechIdentityProtocol.MIPType",
          "name": "mipType",
          "type": "uint8"
        },
        {
          "indexed": true,
          "internalType": "address",
          "name": "account",
          "type": "address"
        }
      ],
      "name": "WhitelistRedeemed",
      "type": "event"
    },
    {
      "inputs": [],
      "name": "DEFAULT_ADMIN_ROLE",
      "outputs": [
        {
          "internalType": "bytes32",
          "name": "",
          "type": "bytes32"
        }
      ],
      "stateMutability": "view",
      "type": "function"
    },
    {
      "inputs": [
        {
          "internalType": "address",
          "name": "account",
          "type": "address"
        },
        {
          "internalType": "uint256",
          "name": "id",
          "type": "uint256"
        }
      ],
      "name": "balanceOf",
      "outputs": [
        {
          "internalType": "uint256",
          "name": "",
          "type": "uint256"
        }
      ],
      "stateMutability": "view",
      "type": "function"
    },
    {
      "inputs": [
        {
          "internalType": "address[]",
          "name": "accounts",
          "type": "address[]"
        },
        {
          "internalType": "uint256[]",
          "name": "ids",
          "type": "uint256[]"
        }
      ],
      "name": "balanceOfBatch",
      "outputs": [
        {
          "internalType": "uint256[]",
          "name": "",
          "type": "uint256[]"
        }
      ],
      "stateMutability": "view",
      "type": "function"
    },
    {
      "inputs": [
        {
          "internalType": "address",
          "name": "account",
          "type": "address"
        },
        {
          "internalType": "uint256",
          "name": "id",
          "type": "uint256"
        },
        {
          "internalType": "uint256",
          "name": "value",
          "type": "uint256"
        }
      ],
      "name": "burn",
      "outputs": [],
      "stateMutability": "nonpayable",
      "type": "function"
    },
    {
      "inputs": [
        {
          "internalType": "address",
          "name": "account",
          "type": "address"
        },
        {
          "internalType": "uint256[]",
          "name": "ids",
          "type": "uint256[]"
        },
        {
          "internalType": "uint256[]",
          "name": "values",
          "type": "uint256[]"
        }
      ],
      "name": "burnBatch",
      "outputs": [],
      "stateMutability": "nonpayable",
      "type": "function"
    },
    {
      "inputs": [
        {
          "internalType": "enum MechIdentityProtocol.MIPType",
          "name": "mipType",
          "type": "uint8"
        },
        {
          "internalType": "uint8",
          "name": "quantity",
          "type": "uint8"
        }
      ],
      "name": "claimMIP",
      "outputs": [],
      "stateMutability": "payable",
      "type": "function"
    },
    {
      "inputs": [],
      "name": "contractInfo",
      "outputs": [
        {
          "internalType": "uint16",
          "name": "headCollectionSize",
          "type": "uint16"
        },
        {
          "internalType": "uint16",
          "name": "bodyCollectionSize",
          "type": "uint16"
        },
        {
          "internalType": "uint16",
          "name": "headMaxDirectClaims",
          "type": "uint16"
        },
        {
          "internalType": "uint16",
          "name": "bodyMaxDirectClaims",
          "type": "uint16"
        },
        {
          "internalType": "address",
          "name": "ticketsContractAddress",
          "type": "address"
        },
        {
          "internalType": "address",
          "name": "whitelistsContractAddress",
          "type": "address"
        },
        {
          "internalType": "bool",
          "name": "headIsHidden",
          "type": "bool"
        },
        {
          "internalType": "bool",
          "name": "bodyIsHidden",
          "type": "bool"
        },
        {
          "internalType": "bool",
          "name": "petIsHidden",
          "type": "bool"
        },
        {
          "internalType": "uint8",
          "name": "openStatus",
          "type": "uint8"
        },
        {
          "internalType": "enum MechIdentityProtocol.MIPType",
          "name": "collectionPhase",
          "type": "uint8"
        }
      ],
      "stateMutability": "view",
      "type": "function"
    },
    {
      "inputs": [
        {
          "internalType": "uint256",
          "name": "id",
          "type": "uint256"
        }
      ],
      "name": "exists",
      "outputs": [
        {
          "internalType": "bool",
          "name": "",
          "type": "bool"
        }
      ],
      "stateMutability": "view",
      "type": "function"
    },
    {
      "inputs": [
        {
          "internalType": "address",
          "name": "to",
          "type": "address"
        },
        {
          "internalType": "uint256[]",
          "name": "mipIdsToBurn",
          "type": "uint256[]"
        },
        {
          "internalType": "uint256[]",
          "name": "mipIdsToEdit",
          "type": "uint256[]"
        },
        {
          "internalType": "string[]",
          "name": "metadataURIs",
          "type": "string[]"
        }
      ],
      "name": "garageOperation",
      "outputs": [],
      "stateMutability": "nonpayable",
      "type": "function"
    },
    {
      "inputs": [],
      "name": "getOpenStatus",
      "outputs": [
        {
          "internalType": "bool[8]",
          "name": "",
          "type": "bool[8]"
        }
      ],
      "stateMutability": "view",
      "type": "function"
    },
    {
      "inputs": [
        {
          "internalType": "bytes32",
          "name": "role",
          "type": "bytes32"
        }
      ],
      "name": "getRoleAdmin",
      "outputs": [
        {
          "internalType": "bytes32",
          "name": "",
          "type": "bytes32"
        }
      ],
      "stateMutability": "view",
      "type": "function"
    },
    {
      "inputs": [
        {
          "internalType": "bytes32",
          "name": "role",
          "type": "bytes32"
        },
        {
          "internalType": "address",
          "name": "account",
          "type": "address"
        }
      ],
      "name": "grantRole",
      "outputs": [],
      "stateMutability": "nonpayable",
      "type": "function"
    },
    {
      "inputs": [
        {
          "internalType": "bytes32",
          "name": "role",
          "type": "bytes32"
        },
        {
          "internalType": "address",
          "name": "account",
          "type": "address"
        }
      ],
      "name": "hasRole",
      "outputs": [
        {
          "internalType": "bool",
          "name": "",
          "type": "bool"
        }
      ],
      "stateMutability": "view",
      "type": "function"
    },
    {
      "inputs": [
        {
          "internalType": "string",
          "name": "_name",
          "type": "string"
        },
        {
          "internalType": "string",
          "name": "_symbol",
          "type": "string"
        },
        {
          "internalType": "string",
          "name": "_hiddenURI",
          "type": "string"
        },
        {
          "internalType": "string",
          "name": "_frameURI",
          "type": "string"
        },
        {
          "internalType": "address",
          "name": "_ticketsContractAddress",
          "type": "address"
        },
        {
          "internalType": "address",
          "name": "_whitelistsContractAddress",
          "type": "address"
        }
      ],
      "name": "initialize",
      "outputs": [],
      "stateMutability": "nonpayable",
      "type": "function"
    },
    {
      "inputs": [
        {
          "internalType": "address",
          "name": "account",
          "type": "address"
        },
        {
          "internalType": "address",
          "name": "operator",
          "type": "address"
        }
      ],
      "name": "isApprovedForAll",
      "outputs": [
        {
          "internalType": "bool",
          "name": "",
          "type": "bool"
        }
      ],
      "stateMutability": "view",
      "type": "function"
    },
    {
      "inputs": [
        {
          "internalType": "uint32",
          "name": "",
          "type": "uint32"
        }
      ],
      "name": "mips",
      "outputs": [
        {
          "internalType": "string",
          "name": "mipUri",
          "type": "string"
        },
        {
          "internalType": "enum MechIdentityProtocol.MIPType",
          "name": "mipType",
          "type": "uint8"
        }
      ],
      "stateMutability": "view",
      "type": "function"
    },
    {
      "inputs": [],
      "name": "name",
      "outputs": [
        {
          "internalType": "string",
          "name": "",
          "type": "string"
        }
      ],
      "stateMutability": "view",
      "type": "function"
    },
    {
      "inputs": [],
      "name": "name_",
      "outputs": [
        {
          "internalType": "string",
          "name": "",
          "type": "string"
        }
      ],
      "stateMutability": "view",
      "type": "function"
    },
    {
      "inputs": [],
      "name": "owner",
      "outputs": [
        {
          "internalType": "address",
          "name": "",
          "type": "address"
        }
      ],
      "stateMutability": "view",
      "type": "function"
    },
    {
      "inputs": [],
      "name": "pause",
      "outputs": [],
      "stateMutability": "nonpayable",
      "type": "function"
    },
    {
      "inputs": [],
      "name": "paused",
      "outputs": [
        {
          "internalType": "bool",
          "name": "",
          "type": "bool"
        }
      ],
      "stateMutability": "view",
      "type": "function"
    },
    {
      "inputs": [],
      "name": "payGarageOperation",
      "outputs": [],
      "stateMutability": "payable",
      "type": "function"
    },
    {
      "inputs": [],
      "name": "prices",
      "outputs": [
        {
          "internalType": "uint128",
          "name": "bodyMintPrice",
          "type": "uint128"
        },
        {
          "internalType": "uint128",
          "name": "garagePrice",
          "type": "uint128"
        }
      ],
      "stateMutability": "view",
      "type": "function"
    },
    {
      "inputs": [
        {
          "internalType": "bytes32[]",
          "name": "_merkleProof",
          "type": "bytes32[]"
        },
        {
          "internalType": "uint8",
          "name": "whitelistIdx",
          "type": "uint8"
        },
        {
          "internalType": "uint8",
          "name": "claimAmount",
          "type": "uint8"
        }
      ],
      "name": "redeemByWhitelist",
      "outputs": [],
      "stateMutability": "payable",
      "type": "function"
    },
    {
      "inputs": [
        {
          "internalType": "uint16",
          "name": "ticketId",
          "type": "uint16"
        },
        {
          "internalType": "uint16",
          "name": "ticketAmount",
          "type": "uint16"
        }
      ],
      "name": "redeemTicket",
      "outputs": [],
      "stateMutability": "nonpayable",
      "type": "function"
    },
    {
      "inputs": [],
      "name": "renounceOwnership",
      "outputs": [],
      "stateMutability": "nonpayable",
      "type": "function"
    },
    {
      "inputs": [
        {
          "internalType": "bytes32",
          "name": "role",
          "type": "bytes32"
        },
        {
          "internalType": "address",
          "name": "account",
          "type": "address"
        }
      ],
      "name": "renounceRole",
      "outputs": [],
      "stateMutability": "nonpayable",
      "type": "function"
    },
    {
      "inputs": [
        {
          "internalType": "bytes32",
          "name": "role",
          "type": "bytes32"
        },
        {
          "internalType": "address",
          "name": "account",
          "type": "address"
        }
      ],
      "name": "revokeRole",
      "outputs": [],
      "stateMutability": "nonpayable",
      "type": "function"
    },
    {
      "inputs": [
        {
          "internalType": "address",
          "name": "from",
          "type": "address"
        },
        {
          "internalType": "address",
          "name": "to",
          "type": "address"
        },
        {
          "internalType": "uint256[]",
          "name": "ids",
          "type": "uint256[]"
        },
        {
          "internalType": "uint256[]",
          "name": "amounts",
          "type": "uint256[]"
        },
        {
          "internalType": "bytes",
          "name": "data",
          "type": "bytes"
        }
      ],
      "name": "safeBatchTransferFrom",
      "outputs": [],
      "stateMutability": "nonpayable",
      "type": "function"
    },
    {
      "inputs": [
        {
          "internalType": "address",
          "name": "from",
          "type": "address"
        },
        {
          "internalType": "address",
          "name": "to",
          "type": "address"
        },
        {
          "internalType": "uint256",
          "name": "id",
          "type": "uint256"
        },
        {
          "internalType": "uint256",
          "name": "amount",
          "type": "uint256"
        },
        {
          "internalType": "bytes",
          "name": "data",
          "type": "bytes"
        }
      ],
      "name": "safeTransferFrom",
      "outputs": [],
      "stateMutability": "nonpayable",
      "type": "function"
    },
    {
      "inputs": [
        {
          "internalType": "address",
          "name": "operator",
          "type": "address"
        },
        {
          "internalType": "bool",
          "name": "approved",
          "type": "bool"
        }
      ],
      "name": "setApprovalForAll",
      "outputs": [],
      "stateMutability": "nonpayable",
      "type": "function"
    },
    {
      "inputs": [
        {
          "internalType": "uint16",
          "name": "_headCollectionSize",
          "type": "uint16"
        },
        {
          "internalType": "uint16",
          "name": "_bodyCollectionSize",
          "type": "uint16"
        },
        {
          "internalType": "uint16",
          "name": "_headMaxDirectClaims",
          "type": "uint16"
        },
        {
          "internalType": "uint16",
          "name": "_bodyMaxDirectClaims",
          "type": "uint16"
        },
        {
          "internalType": "address",
          "name": "_ticketsContractAddress",
          "type": "address"
        },
        {
          "internalType": "address",
          "name": "_whitelistsContractAddress",
          "type": "address"
        },
        {
          "internalType": "bool",
          "name": "_headIsHidden",
          "type": "bool"
        },
        {
          "internalType": "bool",
          "name": "_petIsHidden",
          "type": "bool"
        },
        {
          "internalType": "bool",
          "name": "_bodyIsHidden",
          "type": "bool"
        },
        {
          "internalType": "uint8",
          "name": "_openStatus",
          "type": "uint8"
        },
        {
          "internalType": "enum MechIdentityProtocol.MIPType",
          "name": "_collectionPhase",
          "type": "uint8"
        }
      ],
      "name": "setContractInfo",
      "outputs": [],
      "stateMutability": "nonpayable",
      "type": "function"
    },
    {
      "inputs": [
        {
          "internalType": "string",
          "name": "_hiddenURI",
          "type": "string"
        },
        {
          "internalType": "string",
          "name": "_frameURI",
          "type": "string"
        },
        {
          "internalType": "string",
          "name": "_headBaseURI",
          "type": "string"
        },
        {
          "internalType": "string",
          "name": "_bodyBaseURI",
          "type": "string"
        },
        {
          "internalType": "string",
          "name": "_petBaseURI",
          "type": "string"
        }
      ],
      "name": "setMetadataURIs",
      "outputs": [],
      "stateMutability": "nonpayable",
      "type": "function"
    },
    {
      "inputs": [
        {
          "internalType": "bool[8]",
          "name": "_openStatus",
          "type": "bool[8]"
        }
      ],
      "name": "setOpenStatus",
      "outputs": [],
      "stateMutability": "nonpayable",
      "type": "function"
    },
    {
      "inputs": [
        {
          "internalType": "address",
          "name": "_addr",
          "type": "address"
        }
      ],
      "name": "setOwner",
      "outputs": [],
      "stateMutability": "nonpayable",
      "type": "function"
    },
    {
      "inputs": [
        {
          "internalType": "uint256",
          "name": "_bodyMintPrice",
          "type": "uint256"
        },
        {
          "internalType": "uint256",
          "name": "_garagePrice",
          "type": "uint256"
        }
      ],
      "name": "setPrices",
      "outputs": [],
      "stateMutability": "nonpayable",
      "type": "function"
    },
    {
      "inputs": [
        {
          "internalType": "address",
          "name": "wallet",
          "type": "address"
        },
        {
          "internalType": "bool",
          "name": "promote",
          "type": "bool"
        }
      ],
      "name": "setTeamMember",
      "outputs": [],
      "stateMutability": "nonpayable",
      "type": "function"
    },
    {
      "inputs": [
        {
          "internalType": "string",
          "name": "baseURI",
          "type": "string"
        }
      ],
      "name": "setURI",
      "outputs": [],
      "stateMutability": "nonpayable",
      "type": "function"
    },
    {
      "inputs": [
        {
          "internalType": "bytes4",
          "name": "interfaceId",
          "type": "bytes4"
        }
      ],
      "name": "supportsInterface",
      "outputs": [
        {
          "internalType": "bool",
          "name": "",
          "type": "bool"
        }
      ],
      "stateMutability": "view",
      "type": "function"
    },
    {
      "inputs": [],
      "name": "symbol",
      "outputs": [
        {
          "internalType": "string",
          "name": "",
          "type": "string"
        }
      ],
      "stateMutability": "view",
      "type": "function"
    },
    {
      "inputs": [],
      "name": "symbol_",
      "outputs": [
        {
          "internalType": "string",
          "name": "",
          "type": "string"
        }
      ],
      "stateMutability": "view",
      "type": "function"
    },
    {
      "inputs": [],
      "name": "tokensTotalSupply",
      "outputs": [
        {
          "internalType": "uint256[4]",
          "name": "",
          "type": "uint256[4]"
        }
      ],
      "stateMutability": "view",
      "type": "function"
    },
    {
      "inputs": [
        {
          "internalType": "uint256",
          "name": "id",
          "type": "uint256"
        }
      ],
      "name": "totalSupply",
      "outputs": [
        {
          "internalType": "uint256",
          "name": "",
          "type": "uint256"
        }
      ],
      "stateMutability": "view",
      "type": "function"
    },
    {
      "inputs": [
        {
          "internalType": "address",
          "name": "newOwner",
          "type": "address"
        }
      ],
      "name": "transferOwnership",
      "outputs": [],
      "stateMutability": "nonpayable",
      "type": "function"
    },
    {
      "inputs": [],
      "name": "unpause",
      "outputs": [],
      "stateMutability": "nonpayable",
      "type": "function"
    },
    {
      "inputs": [
        {
          "internalType": "uint256",
          "name": "_id",
          "type": "uint256"
        }
      ],
      "name": "uri",
      "outputs": [
        {
          "internalType": "string",
          "name": "",
          "type": "string"
        }
      ],
      "stateMutability": "view",
      "type": "function"
    },
    {
      "inputs": [
        {
          "internalType": "address",
          "name": "",
          "type": "address"
        }
      ],
      "name": "userInfo",
      "outputs": [
        {
          "internalType": "uint16",
          "name": "headMipsDirectlyClaimed",
          "type": "uint16"
        },
        {
          "internalType": "uint16",
          "name": "bodyMipsDirectlyClaimed",
          "type": "uint16"
        },
        {
          "internalType": "bool",
          "name": "garageOperationPaid",
          "type": "bool"
        }
      ],
      "stateMutability": "view",
      "type": "function"
    },
    {
      "inputs": [
        {
          "internalType": "address payable",
          "name": "_to",
          "type": "address"
        },
        {
          "internalType": "uint256",
          "name": "_amount",
          "type": "uint256"
        }
      ],
      "name": "withdrawEther",
      "outputs": [],
      "stateMutability": "nonpayable",
      "type": "function"
    }
  ],
  "bytecode": "0x608060405234801561001057600080fd5b50615faa80620000216000396000f3fe6080604052600436106102925760003560e01c8063715018a61161015a578063bd85b039116100c1578063e9472f831161007a578063e9472f83146108cf578063e985e9c5146108f1578063eb084f101461093a578063f242432a1461094d578063f2fde38b1461096d578063f5298aca1461098d57610292565b8063bd85b039146107e0578063bf34c5c11461080e578063cbff3c681461082e578063d3419bf31461084e578063d547741f1461089a578063e2b9e186146108ba57610292565b806395d89b411161011357806395d89b4114610759578063a217fddf1461076e578063a22cb46514610783578063af17dea6146107a3578063baea0063146107b8578063bd164a41146107d857610292565b8063715018a6146106a4578063832f5a8e146106b95780638456cb59146106d95780638da5cb5b146106ee57806391d148541461071757806395a082211461073757610292565b80632f2ff15d116101fe5780634f558e79116101b75780634f558e79146105ce578063522f6815146105fe5780635c975abb1461061e57806360bba03d1461063657806361951998146106565780636b20c4541461068457610292565b80632f2ff15d1461051957806331af54021461053957806336568abe146105595780633965b47d146105795780633f4ba83a1461058c5780634e1273f4146105a157610292565b806313af40351161025057806313af40351461037e57806315c43aaf1461039e5780631959a0021461043d578063248a9ca3146104a95780632ad58126146104d95780632eb2c2d6146104f957610292565b8062fdd58e1461029757806301ffc9a7146102ca57806302fe5305146102fa57806305fefda71461031c57806306fdde031461033c5780630e89341c1461035e575b600080fd5b3480156102a357600080fd5b506102b76102b2366004614eae565b6109ad565b6040519081526020015b60405180910390f35b3480156102d657600080fd5b506102ea6102e53660046150a1565b610a46565b60405190151581526020016102c1565b34801561030657600080fd5b5061031a6103153660046151ec565b610a59565b005b34801561032857600080fd5b5061031a6103373660046153dd565b610a90565b34801561034857600080fd5b50610351610af6565b6040516102c191906157db565b34801561036a57600080fd5b50610351610379366004615065565b610b8a565b34801561038a57600080fd5b5061031a610399366004614bd2565b610e2e565b3480156103aa57600080fd5b506101cf546101d0546104269161ffff80821692620100008304821692600160201b8104831692600160301b820416916001600160a01b03600160401b90920482169181169060ff600160a01b8204811691600160a81b8104821691600160b01b8204811691600160b81b8104821691600160c01b909104168b565b6040516102c19b9a99989796959493929190615a7f565b34801561044957600080fd5b50610486610458366004614bd2565b6101d16020526000908152604090205461ffff8082169162010000810490911690600160201b900460ff1683565b6040805161ffff94851681529390921660208401521515908201526060016102c1565b3480156104b557600080fd5b506102b76104c4366004615065565b60009081526065602052604090206001015490565b3480156104e557600080fd5b5061031a6104f4366004615102565b610e62565b34801561050557600080fd5b5061031a610514366004614c51565b610edf565b34801561052557600080fd5b5061031a61053436600461507d565b610f76565b34801561054557600080fd5b5061031a610554366004614fc0565b610fa2565b34801561056557600080fd5b5061031a61057436600461507d565b61104e565b61031a6105873660046150d9565b6110cc565b34801561059857600080fd5b5061031a61127f565b3480156105ad57600080fd5b506105c16105bc366004614ef4565b6112b4565b6040516102c191906157a3565b3480156105da57600080fd5b506102ea6105e9366004615065565b600090815261012d6020526040902054151590565b34801561060a57600080fd5b5061031a610619366004614bee565b611415565b34801561062a57600080fd5b5060c95460ff166102ea565b34801561064257600080fd5b5061031a610651366004614e7a565b61149e565b34801561066257600080fd5b506106766106713660046153fe565b6114e1565b6040516102c19291906157ee565b34801561069057600080fd5b5061031a61069f366004614e08565b611589565b3480156106b057600080fd5b5061031a6115cc565b3480156106c557600080fd5b5061031a6106d436600461530e565b611601565b3480156106e557600080fd5b5061031a6117e6565b3480156106fa57600080fd5b50610191546040516001600160a01b0390911681526020016102c1565b34801561072357600080fd5b506102ea61073236600461507d565b611819565b34801561074357600080fd5b5061074c611844565b6040516102c19190615741565b34801561076557600080fd5b50610351611895565b34801561077a57600080fd5b506102b7600081565b34801561078f57600080fd5b5061031a61079e366004614e7a565b6118a5565b3480156107af57600080fd5b506103516118b0565b3480156107c457600080fd5b5061031a6107d336600461521e565b61193f565b61031a611bd2565b3480156107ec57600080fd5b506102b76107fb366004615065565b600090815261012d602052604090205490565b34801561081a57600080fd5b5061031a610829366004614d60565b611c82565b34801561083a57600080fd5b5061031a6108493660046152e5565b61227d565b34801561085a57600080fd5b506101ce5461087a906001600160801b0380821691600160801b90041682565b604080516001600160801b039384168152929091166020830152016102c1565b3480156108a657600080fd5b5061031a6108b536600461507d565b61256b565b3480156108c657600080fd5b50610351612591565b3480156108db57600080fd5b506108e461259f565b6040516102c1919061570d565b3480156108fd57600080fd5b506102ea61090c366004614c19565b6001600160a01b03918216600090815260986020908152604080832093909416825291909152205460ff1690565b61031a610948366004614fe9565b6126cc565b34801561095957600080fd5b5061031a610968366004614cfa565b612888565b34801561097957600080fd5b5061031a610988366004614bd2565b6128cd565b34801561099957600080fd5b5061031a6109a8366004614ec0565b612966565b60006001600160a01b038316610a1e5760405162461bcd60e51b815260206004820152602b60248201527f455243313135353a2062616c616e636520717565727920666f7220746865207a60448201526a65726f206164647265737360a81b60648201526084015b60405180910390fd5b5060009081526097602090815260408083206001600160a01b03949094168352929052205490565b6000610a51826129a9565b90505b919050565b610191546001600160a01b03163314610a845760405162461bcd60e51b8152600401610a15906159b7565b610a8d816129e9565b50565b610a986129fc565b610aa182612a65565b6101ce80546fffffffffffffffffffffffffffffffff19166001600160801b0392909216919091179055610ad481612a65565b6101ce80546001600160801b03928316600160801b0292169190911790555050565b60606101c38054610b0690615d25565b80601f0160208091040260200160405190810160405280929190818152602001828054610b3290615d25565b8015610b7f5780601f10610b5457610100808354040283529160200191610b7f565b820191906000526020600020905b815481529060010190602001808311610b6257829003601f168201915b505050505090505b90565b600081815261012d602052604081205460609110610bd75760405162461bcd60e51b815260206004820152600a602482015269125b9d985b1a5908125160b21b6044820152606401610a15565b60006101d26000610be785612ad2565b63ffffffff168152602081019190915260400160009081209150600182015460ff166004811115610c2857634e487b7160e01b600052602160045260246000fd5b1415610c6257610c3783612b37565b604051610c4b91906101ca9060200161558a565b604051602081830303815290604052915050610a54565b6004600182015460ff166004811115610c8b57634e487b7160e01b600052602160045260246000fd5b1415610cac57610c9a83612b37565b604051610c4b9190839060200161558a565b60018082015460ff166004811115610cd457634e487b7160e01b600052602160045260246000fd5b1415610d47576101d054600160a01b900460ff1615610d0a57610cf683612b37565b604051610c4b91906101c99060200161558a565b610d1383612b37565b6040805180820182526005815264173539b7b760d91b6020808301919091529151610c4b93926101cb9286929091016155b1565b6002600182015460ff166004811115610d7057634e487b7160e01b600052602160045260246000fd5b1415610dcf576101d054600160b01b900460ff1615610d9257610cf683612b37565b610d9b83612b37565b6040805180820182526005815264173539b7b760d91b6020808301919091529151610c4b93926101cd9286929091016155b1565b6101d054600160a81b900460ff1615610deb57610cf683612b37565b610df483612b37565b6040805180820182526005815264173539b7b760d91b6020808301919091529151610c4b93926101cc9286929091016155b1565b50919050565b610191546001600160a01b03163314610e595760405162461bcd60e51b8152600401610a15906159b7565b610a8d816128cd565b610e6a6129fc565b8815610e7f57610e7d6101c98b8b614899565b505b8615610e9457610e926101ca8989614899565b505b8415610ea957610ea76101cb8787614899565b505b8215610ebe57610ebc6101cc8585614899565b505b8015610ed357610ed16101cd8383614899565b505b50505050505050505050565b6001600160a01b038516331480610efb5750610efb853361090c565b610f625760405162461bcd60e51b815260206004820152603260248201527f455243313135353a207472616e736665722063616c6c6572206973206e6f74206044820152711bdddb995c881b9bdc88185c1c1c9bdd995960721b6064820152608401610a15565b610f6f8585858585612bcb565b5050505050565b600082815260656020526040902060010154610f9381335b612d94565b610f9d8383612df8565b505050565b610faa6129fc565b6000610fb9602083018361504b565b15610fc2576001175b60005b60088160ff16101561102b57828160ff1660088110610ff457634e487b7160e01b600052603260045260246000fd5b602002016020810190611007919061504b565b1561101957600160ff82161b91909117905b8061102381615ddd565b915050610fc5565b506101d0805460ff909216600160b81b0260ff60b81b1990921691909117905550565b6001600160a01b03811633146110be5760405162461bcd60e51b815260206004820152602f60248201527f416363657373436f6e74726f6c3a2063616e206f6e6c792072656e6f756e636560448201526e103937b632b9903337b91039b2b63360891b6064820152608401610a15565b6110c88282612e7e565b5050565b600060018360048111156110f057634e487b7160e01b600052602160045260246000fd5b14156110fe5750600061110d565b506101ce546001600160801b03165b61111c60008360ff1683612ee5565b611129838360ff1661303c565b61113f8260ff16826001600160801b0316613298565b600183600481111561116157634e487b7160e01b600052602160045260246000fd5b14156111ad573360009081526101d160205260408120805460ff8516929061118e90849061ffff16615be5565b92506101000a81548161ffff021916908361ffff1602179055506111f8565b3360009081526101d160205260409020805460ff841691906002906111dd90849062010000900461ffff16615be5565b92506101000a81548161ffff021916908361ffff1602179055505b60005b8260ff168160ff161015611225576112133385613352565b8061121d81615ddd565b9150506111fb565b50337fe921b6535f7e681f9793d6a97bdf7f58861fd0bd8dcb1c0ba9f333a8d41eadb061125a6112556101c55490565b612ad2565b6040805163ffffffff909216825260ff861660208301520160405180910390a2505050565b610191546001600160a01b031633146112aa5760405162461bcd60e51b8152600401610a15906159b7565b6112b26134cd565b565b606081518351146113195760405162461bcd60e51b815260206004820152602960248201527f455243313135353a206163636f756e747320616e6420696473206c656e677468604482015268040dad2e6dac2e8c6d60bb1b6064820152608401610a15565b600083516001600160401b0381111561134257634e487b7160e01b600052604160045260246000fd5b60405190808252806020026020018201604052801561136b578160200160208202803683370190505b50905060005b845181101561140d576113d285828151811061139d57634e487b7160e01b600052603260045260246000fd5b60200260200101518583815181106113c557634e487b7160e01b600052603260045260246000fd5b60200260200101516109ad565b8282815181106113f257634e487b7160e01b600052603260045260246000fd5b602090810291909101015261140681615da8565b9050611371565b509392505050565b61141d613560565b4780821115611462576040516001600160a01b0384169082156108fc029083906000818181858888f1935050505015801561145c573d6000803e3d6000fd5b50610f9d565b6040516001600160a01b0384169083156108fc029084906000818181858888f19350505050158015611498573d6000803e3d6000fd5b50505050565b6114a6613560565b80156114c9576114c4600080516020615f5583398151915283610f76565b6110c8565b6110c8600080516020615f558339815191528361256b565b6101d2602052600090815260409020805481906114fd90615d25565b80601f016020809104026020016040519081016040528092919081815260200182805461152990615d25565b80156115765780601f1061154b57610100808354040283529160200191611576565b820191906000526020600020905b81548152906001019060200180831161155957829003601f168201915b5050506001909301549192505060ff1682565b6001600160a01b0383163314806115a557506115a5833361090c565b6115c15760405162461bcd60e51b8152600401610a159061589c565b610f9d83838361356b565b610191546001600160a01b031633146115f75760405162461bcd60e51b8152600401610a15906159b7565b6112b26000613576565b6116096129fc565b60006101cf90508b8160000160006101000a81548161ffff021916908361ffff1602179055508a8160000160026101000a81548161ffff021916908361ffff160217905550898160000160046101000a81548161ffff021916908361ffff160217905550888160000160066101000a81548161ffff021916908361ffff160217905550858160010160146101000a81548160ff021916908315150217905550848160010160166101000a81548160ff021916908315150217905550838160010160156101000a81548160ff02191690831515021790555060006001600160a01b0316886001600160a01b03161461172257805468010000000000000000600160e01b031916600160401b6001600160a01b038a16021781555b6001600160a01b0387161561174f576001810180546001600160a01b0319166001600160a01b0389161790555b60ff8360ff1610156117765760018101805460ff60b81b1916600160b81b60ff8616021790555b600082600481111561179857634e487b7160e01b600052602160045260246000fd5b146117d85760018101805483919060ff60c01b1916600160c01b8360048111156117d257634e487b7160e01b600052602160045260246000fd5b02179055505b505050505050505050505050565b610191546001600160a01b031633146118115760405162461bcd60e51b8152600401610a15906159b7565b6112b26135c9565b60009182526065602090815260408084206001600160a01b0393909316845291905290205460ff1690565b61184c614919565b60405180608001604052806118616101c65490565b81526020016118706101c75490565b815260200161187f6101c85490565b815260200161188e6101c55490565b9052905090565b60606101c48054610b0690615d25565b6110c8338383613644565b6101c480546118be90615d25565b80601f01602080910402602001604051908101604052809291908181526020018280546118ea90615d25565b80156119375780601f1061190c57610100808354040283529160200191611937565b820191906000526020600020905b81548152906001019060200180831161191a57829003601f168201915b505050505081565b600054610100900460ff1661195a5760005460ff161561195e565b303b155b6119c15760405162461bcd60e51b815260206004820152602e60248201527f496e697469616c697a61626c653a20636f6e747261637420697320616c72656160448201526d191e481a5b9a5d1a585b1a5e995960921b6064820152608401610a15565b600054610100900460ff161580156119e3576000805461ffff19166101011790555b611a106040518060400160405280600c81526020016b697066733a2f2f697066732f60a01b815250613725565b8651611a24906101c39060208a0190614937565b508551611a39906101c4906020890190614937565b508451611a4e906101c9906020880190614937565b508351611a63906101ca906020870190614937565b50604080516101608101825261251c8152611f40602080830191909152600482840181905260608301526001600160a01b038681166080840181905290861660a08401819052600160c0850181905260e08501819052610100850181905260006101208601819052610140909501526101cf80546001600160e01b031916600160401b90930292909217660400041f40251c179091556101d08054630100010160a81b63ffffffff60a81b196001600160a81b0319909216909317600160a01b1716919091179055825180840190935267015fb7f9b8c3800080845292019190915277015fb7f9b8c380000000000000000000015fb7f9b8c380006101ce55611b6c9033613755565b611b8b600073b1d8a6fd75e501aaacfcb1507afcbfcaade75d93613755565b611bb7600080516020615f55833981519152739d26262acc4dd72e4a251478f0619d21d159ab58610f76565b8015611bc9576000805461ff00191690555b50505050505050565b6101ce54600160801b90046001600160801b0316611bf36003600183612ee5565b3360009081526101d16020526040902054600160201b900460ff1615611c495760405162461bcd60e51b815260206004820152600b60248201526a11d85c9859d9481c185a5960aa1b6044820152606401610a15565b611c5d6001826001600160801b0316613298565b503360009081526101d160205260409020805464ff000000001916600160201b179055565b611c8a6129fc565b6101d054611ca390600160b81b900460ff16600361375f565b611ce25760405162461bcd60e51b815260206004820152601060248201526f11d85c9859d9481a5cc818db1bdcd95960821b6044820152606401610a15565b60c95460ff1615611d2a5760405162461bcd60e51b815260206004820152601260248201527110dbdb9d1c9858dd081a5cc81c185d5cd95960721b6044820152606401610a15565b6001600160a01b03871660009081526101d16020526040902054600160201b900460ff16611d8c5760405162461bcd60e51b815260206004820152600f60248201526e11d85c9859d9481b9bdd081c185a59608a1b6044820152606401610a15565b6001600160a01b03871660009081526101d160205260408120805464ff00000000191690555b63ffffffff8116861115611e4e57611df68888888463ffffffff16818110611dea57634e487b7160e01b600052603260045260246000fd5b905060200201356109ad565b600114611e3c5760405162461bcd60e51b8152602060048201526014602482015273111bdb89dd081a185d99481d1a1948185cdcd95d60621b6044820152606401610a15565b80611e4681615dc3565b915050611db2565b5060005b63ffffffff8116861115611f13576101d26000611e9a89898563ffffffff16818110611e8e57634e487b7160e01b600052603260045260246000fd5b90506020020135612ad2565b63ffffffff1681526020810191909152604001600090812090611ebd82826149ab565b50600101805460ff19169055611f0188888863ffffffff8516818110611ef357634e487b7160e01b600052603260045260246000fd5b905060200201356001613785565b80611f0b81615dc3565b915050611e52565b5060005b63ffffffff8116841115611fa757611f4f8886868463ffffffff16818110611dea57634e487b7160e01b600052603260045260246000fd5b600114611f955760405162461bcd60e51b8152602060048201526014602482015273111bdb89dd081a185d99481d1a1948185cdcd95d60621b6044820152606401610a15565b80611f9f81615dc3565b915050611f17565b5060005b63ffffffff81168411156120da5763ffffffff811682111561206a5760006101d26000611ff788888663ffffffff16818110611e8e57634e487b7160e01b600052603260045260246000fd5b63ffffffff1663ffffffff168152602001908152602001600020905083838363ffffffff1681811061203957634e487b7160e01b600052603260045260246000fd5b905060200281019061204b9190615b7e565b612056918391614899565b50600101805460ff191660041790556120c8565b6101d2600061209887878563ffffffff16818110611e8e57634e487b7160e01b600052603260045260246000fd5b63ffffffff16815260208101919091526040016000908120906120bb82826149ab565b50600101805460ff191690555b806120d281615dc3565b915050611fab565b63ffffffff8116841115612157576101d2600061211687878563ffffffff16818110611e8e57634e487b7160e01b600052603260045260246000fd5b63ffffffff168152602081019190915260400160009081209061213982826149ab565b50600101805460ff191690558061214f81615dc3565b9150506120da565b63ffffffff81168211156122265760006121746112556101c55490565b63ffffffff80821660009081526101d2602052604090209192508590859085168181106121b157634e487b7160e01b600052603260045260246000fd5b90506020028101906121c39190615b7e565b6121ce918391614899565b506001818101805460ff19166004179055604080516020810190915260008152612202918c9163ffffffff86169190613790565b6122116101c580546001019055565b5050808061221e90615dc3565b915050612157565b60405133906001600160a01b038a16907f379ecce82dd77865e4f69f3c6a483e7b3af42fbec8fc40ae2e447791c850ae279061226b908b908b908b908b908a90615769565b60405180910390a35050505050505050565b6101cf54604051634215b3ab60e01b815261ffff84166004820152600160401b9091046001600160a01b031690600090612317908390634215b3ab9060240160206040518083038186803b1580156122d457600080fd5b505afa1580156122e8573d6000803e3d6000fd5b505050506040513d601f19601f8201168201806040525081019061230c919061541a565b63ffffffff1661379c565b905060006123258285615c8b565b905061233181866137ff565b604051630f06527960e11b815233600482015261ffff8681166024830152851660448201526001600160a01b03841690631e0ca4f290606401600060405180830381600087803b15801561238457600080fd5b505af1925050508015612395575060015b612463576123a1615e53565b806308c379a014156123db57506123b6615e6a565b806123c15750612459565b8060405162461bcd60e51b8152600401610a1591906157db565b634e487b711415612459576123ee615efb565b906123f95750612459565b80601114156124375760405162461bcd60e51b815260206004820152600a6024820152694e6f207469636b65747360b01b6044820152606401610a15565b612440816139ab565b60405162461bcd60e51b8152600401610a1591906157db565b3d6000803e3d6000fd5b600061ffff86166124765750600161249e565b600161ffff8716148061248d5750600361ffff8716145b1561249a5750600361249e565b5060025b60005b8261ffff168161ffff1610156124cd576124bb3383613352565b806124c581615d86565b9150506124a1565b5061ffff86166124f2576124e2600186613acd565b6124ed600486613acd565b61250a565b600161ffff8716141561250a5761250a600586613acd565b50337f6ed7c7aef49874aca71ccd63787009f9115ce57646f41eb6f4fae11e2ec4940661253a6112556101c55490565b6040805163ffffffff909216825261ffff808616602084015288169082015260600160405180910390a25050505050565b6000828152606560205260409020600101546125878133610f8e565b610f9d8383612e7e565b6101c380546118be90615d25565b6125a76149e7565b6040805161010081019091526101d05481906125ce90600160b81b900460ff16600061375f565b151581526101d0546020909101906125f190600160b81b900460ff16600161375f565b151581526101d05460209091019061261490600160b81b900460ff16600261375f565b151581526101d05460209091019061263790600160b81b900460ff16600361375f565b151581526101d05460209091019061265a90600160b81b900460ff16600461375f565b151581526101d05460209091019061267d90600160b81b900460ff16600561375f565b151581526101d0546020909101906126a090600160b81b900460ff16600661375f565b151581526101d0546020909101906126c390600160b81b900460ff16600761375f565b15159052905090565b6101d054600160c01b900460ff16600060018260048111156126fe57634e487b7160e01b600052602160045260246000fd5b14612715576101ce546001600160801b0316612718565b60005b9050612732612728856005615c23565b8460ff1683612ee5565b6101d0546001600160a01b03168063e9a3d93834848888338d8d8b600481111561276c57634e487b7160e01b600052602160045260246000fd5b6040518963ffffffff1660e01b815260040161278f989796959493929190615afb565b600060405180830381600087803b1580156127a957600080fd5b505af19250505080156127ba575060015b6127e6576127c6615e53565b806308c379a014156127db57506123b6615e6a565b503d6000803e3d6000fd5b6127f28460ff16613b45565b6128088460ff16836001600160801b0316613298565b60005b8460ff168161ffff161015612836576128243385613352565b8061282e81615d86565b91505061280b565b50337f13f22a0cfaaf4b6a8bf80124672a812d78de81a36c5b2c1f19e9edffab3fa3036128666112556101c55490565b868660405161287793929190615b5b565b60405180910390a250505050505050565b6001600160a01b0385163314806128a457506128a4853361090c565b6128c05760405162461bcd60e51b8152600401610a159061589c565b610f6f8585858585613d42565b610191546001600160a01b031633146128f85760405162461bcd60e51b8152600401610a15906159b7565b6001600160a01b03811661295d5760405162461bcd60e51b815260206004820152602660248201527f4f776e61626c653a206e6577206f776e657220697320746865207a65726f206160448201526564647265737360d01b6064820152608401610a15565b610a8d81613576565b6001600160a01b0383163314806129825750612982833361090c565b61299e5760405162461bcd60e51b8152600401610a159061589c565b610f9d838383613785565b60006001600160e01b03198216636cdb3d1360e11b14806129da57506001600160e01b031982166303a24d0760e21b145b80610a515750610a5182613e69565b80516110c8906099906020840190614937565b612a14600080516020615f5583398151915233611819565b80612a255750612a25600033611819565b6112b25760405162461bcd60e51b81526020600482015260116024820152704e6f7420726571756972656420726f6c6560781b6044820152606401610a15565b60006001600160801b03821115612ace5760405162461bcd60e51b815260206004820152602760248201527f53616665436173743a2076616c756520646f65736e27742066697420696e20316044820152663238206269747360c81b6064820152608401610a15565b5090565b600063ffffffff821115612ace5760405162461bcd60e51b815260206004820152602660248201527f53616665436173743a2076616c756520646f65736e27742066697420696e203360448201526532206269747360d01b6064820152608401610a15565b606060998054612b4690615d25565b80601f0160208091040260200160405190810160405280929190818152602001828054612b7290615d25565b8015612bbf5780601f10612b9457610100808354040283529160200191612bbf565b820191906000526020600020905b815481529060010190602001808311612ba257829003601f168201915b50505050509050919050565b8151835114612bec5760405162461bcd60e51b8152600401610a1590615a37565b6001600160a01b038416612c125760405162461bcd60e51b8152600401610a15906158e5565b33612c21818787878787613e9e565b60005b8451811015612d26576000858281518110612c4f57634e487b7160e01b600052603260045260246000fd5b602002602001015190506000858381518110612c7b57634e487b7160e01b600052603260045260246000fd5b60209081029190910181015160008481526097835260408082206001600160a01b038e168352909352919091205490915081811015612ccc5760405162461bcd60e51b8152600401610a159061596d565b60008381526097602090815260408083206001600160a01b038e8116855292528083208585039055908b16825281208054849290612d0b908490615c0b565b9250508190555050505080612d1f90615da8565b9050612c24565b50846001600160a01b0316866001600160a01b0316826001600160a01b03167f4a39dc06d4c0dbc64b70af90fd698a233a518aa5d07e595d983b8c0526c8f7fb8787604051612d769291906157b6565b60405180910390a4612d8c818787878787613eac565b505050505050565b612d9e8282611819565b6110c857612db6816001600160a01b03166014613ffd565b612dc1836020613ffd565b604051602001612dd29291906155f5565b60408051601f198184030181529082905262461bcd60e51b8252610a15916004016157db565b612e028282611819565b6110c85760008281526065602090815260408083206001600160a01b03851684529091529020805460ff19166001179055612e3a3390565b6001600160a01b0316816001600160a01b0316837f2f8788117e7eff1d82e926ec794901d17c78024a50270940304540a733656f0d60405160405180910390a45050565b612e888282611819565b156110c85760008281526065602090815260408083206001600160a01b0385168085529252808320805460ff1916905551339285917ff6391f5c32d9c69d2a47ea670b442974b53935d1edc7fd64eb21e047a839171b9190a45050565b60c95460ff1615612f2d5760405162461bcd60e51b815260206004820152601260248201527110dbdb9d1c9858dd081a5cc81c185d5cd95960721b6044820152606401610a15565b6101d054612f4590600160b81b900460ff168461375f565b612f875760405162461bcd60e51b815260206004820152601360248201527213dc195c985d1a5bdb881a5cc818db1bdcd959606a1b6044820152606401610a15565b60008261ffff1611612fcf5760405162461bcd60e51b81526020600482015260116024820152705174792e2063616e74206265207a65726f60781b6044820152606401610a15565b6001600160801b03811615610f9d57612fec8161ffff8416615c5c565b6001600160801b0316341015610f9d5760405162461bcd60e51b8152602060048201526015602482015274115d1a195c881d985b1d59481a5b98dbdc9c9958dd605a1b6044820152606401610a15565b600182600481111561305e57634e487b7160e01b600052602160045260246000fd5b1415613172576130716000826000612ee5565b6101cf543360009081526101d1602052604090205461ffff600160201b9092048216916130a091849116615be5565b61ffff161115604051806040016040528060178152602001765174792e2065786365656473206d617820636c61696d7360481b815250906130f45760405162461bcd60e51b8152600401610a1591906157db565b506101cf5461ffff90811690821661310c6101c65490565b6131169190615c0b565b11156040518060400160405280601781526020017f5174792e206578636565647320636f6c6c656374696f6e0000000000000000008152509061316c5760405162461bcd60e51b8152600401610a1591906157db565b506110c8565b600382600481111561319457634e487b7160e01b600052602160045260246000fd5b141561325d576101ce546131b59060019083906001600160801b0316612ee5565b6101cf543360009081526101d1602052604090205461ffff600160301b9092048216916131eb9184916201000090910416615be5565b61ffff161115604051806040016040528060178152602001765174792e2065786365656473206d617820636c61696d7360481b8152509061323f5760405162461bcd60e51b8152600401610a1591906157db565b506101cf5461ffff62010000909104811690821661310c6101c85490565b60405162461bcd60e51b815260206004820152601060248201526f496e76616c6964204d4950207479706560801b6044820152606401610a15565b60006132a88261ffff8516615cac565b6132b29034615ccb565b90508015610f9d57604051600090339083908381818185875af1925050503d80600081146132fc576040519150601f19603f3d011682016040523d82523d6000602084013e613301565b606091505b50509050806114985760405162461bcd60e51b815260206004820152601b60248201527f43616e27742072657475726e20657863657373207061796d656e7400000000006044820152606401610a15565b60006133616112556101c55490565b63ffffffff811660009081526101d26020526040902060018082018054939450919285929160ff19909116908360048111156133ad57634e487b7160e01b600052602160045260246000fd5b021790555060018360048111156133d457634e487b7160e01b600052602160045260246000fd5b1415613414576133ec6133e76101c65490565b6139ab565b80516133ff918391602090910190614937565b5061340f6101c680546001019055565b61349c565b600283600481111561343657634e487b7160e01b600052602160045260246000fd5b141561346c576134496133e76101c75490565b805161345c918391602090910190614937565b5061340f6101c780546001019055565b6134796133e76101c85490565b805161348c918391602090910190614937565b5061349c6101c880546001019055565b6134ab6101c580546001019055565b611498848363ffffffff16600160405180602001604052806000815250613790565b60c95460ff166135165760405162461bcd60e51b815260206004820152601460248201527314185d5cd8589b194e881b9bdd081c185d5cd95960621b6044820152606401610a15565b60c9805460ff191690557f5db9ee0a495bf2e6ff9c91a7834c1ba4fdd244a5e8aa4e537bd38aeae4b073aa335b6040516001600160a01b03909116815260200160405180910390a1565b612a25600033611819565b610f9d8383836141de565b61019180546001600160a01b038381166001600160a01b0319831681179093556040519116919082907f8be0079c531659141344cd1fd0a4f28419497f9722a3daafe3b4186f6b6457e090600090a35050565b60c95460ff161561360f5760405162461bcd60e51b815260206004820152601060248201526f14185d5cd8589b194e881c185d5cd95960821b6044820152606401610a15565b60c9805460ff191660011790557f62e78cea01bee320cd4e420270b5ea74000d11b0c9f74754ebdbfc544b05a2586135433390565b816001600160a01b0316836001600160a01b031614156136b85760405162461bcd60e51b815260206004820152602960248201527f455243313135353a2073657474696e6720617070726f76616c20737461747573604482015268103337b91039b2b63360b91b6064820152608401610a15565b6001600160a01b03838116600081815260986020908152604080832094871680845294825291829020805460ff191686151590811790915591519182527f17307eab39ab6107e8899845ad3d59bd9653f200f220920489ca2b5937696c31910160405180910390a3505050565b600054610100900460ff1661374c5760405162461bcd60e51b8152600401610a15906159ec565b610a8d8161438b565b6110c88282612df8565b6000600161ffff841660ff84161c81161461377b57600061377e565b60015b9392505050565b610f9d8383836143b2565b611498848484846144b7565b600061ffff821115612ace5760405162461bcd60e51b815260206004820152602660248201527f53616665436173743a2076616c756520646f65736e27742066697420696e203160448201526536206269747360d01b6064820152608401610a15565b61380c6004836000612ee5565b61ffff811661382c576101cf5461ffff90811690831661310c6101c65490565b61ffff811660011480613843575061ffff81166003145b156138d9576101d054600390600160c01b900460ff16600481111561387857634e487b7160e01b600052602160045260246000fd5b60ff1610156138bc5760405162461bcd60e51b815260206004820152601060248201526f49736e277420626f647920706861736560801b6044820152606401610a15565b6101cf5461ffff62010000909104811690831661310c6101c85490565b61ffff81166002141561396b576101d054600290600160c01b900460ff16600481111561391657634e487b7160e01b600052602160045260246000fd5b60ff1610156139595760405162461bcd60e51b815260206004820152600f60248201526e49736e27742070657420706861736560881b6044820152606401610a15565b61072961ffff831661310c6101c75490565b60405162461bcd60e51b8152602060048201526015602482015274139bdd081c995959195b58589b19481d1a58dad95d605a1b6044820152606401610a15565b6060816139d057506040805180820190915260018152600360fc1b6020820152610a54565b8160005b81156139fa57806139e481615da8565b91506139f39050600a83615c48565b91506139d4565b6000816001600160401b03811115613a2257634e487b7160e01b600052604160045260246000fd5b6040519080825280601f01601f191660200182016040528015613a4c576020820181803683370190505b5090505b8415613ac557613a61600183615ccb565b9150613a6e600a86615dfd565b613a79906030615c0b565b60f81b818381518110613a9c57634e487b7160e01b600052603260045260246000fd5b60200101906001600160f81b031916908160001a905350613abe600a86615c48565b9450613a50565b949350505050565b6101cf54604051630a41ad3f60e41b815233600482015263ffffffff8416602482015261ffff83166044820152600160401b9091046001600160a01b031690819063a41ad3f090606401600060405180830381600087803b158015613b3157600080fd5b505af1158015611bc9573d6000803e3d6000fd5b60408051610160810182526101cf805461ffff808216845262010000820481166020850152600160201b8204811694840194909452600160301b810490931660608301526001600160a01b03600160401b909304831660808301526101d05492831660a083015260ff600160a01b84048116151560c0840152600160a81b84048116151560e0840152600160b01b840481161515610100840152600160b81b84048116610120840152600093610140840191600160c01b909104166004811115613c1f57634e487b7160e01b600052602160045260246000fd5b6004811115613c3e57634e487b7160e01b600052602160045260246000fd5b905250905060018161014001516004811115613c6a57634e487b7160e01b600052602160045260246000fd5b1415613c8857806000015161ffff168261ffff1661310c6101c65490565b60038161014001516004811115613caf57634e487b7160e01b600052602160045260246000fd5b1415613ccd57806020015161ffff168261ffff1661310c6101c85490565b60028161014001516004811115613cf457634e487b7160e01b600052602160045260246000fd5b1415613d0c5761072961ffff831661310c6101c75490565b60405162461bcd60e51b815260206004820152600b60248201526a57726f6e6720706861736560a81b6044820152606401610a15565b6001600160a01b038416613d685760405162461bcd60e51b8152600401610a15906158e5565b33613d87818787613d78886145ba565b613d81886145ba565b87613e9e565b60008481526097602090815260408083206001600160a01b038a16845290915290205483811015613dca5760405162461bcd60e51b8152600401610a159061596d565b60008581526097602090815260408083206001600160a01b038b8116855292528083208785039055908816825281208054869290613e09908490615c0b565b909155505060408051868152602081018690526001600160a01b03808916928a821692918616917fc3d58168c5ae7397731d063d5bbf3d657854427343f4c083240f7aacaa2d0f62910160405180910390a4611bc9828888888888614613565b60006001600160e01b03198216637965db0b60e01b1480610a5157506301ffc9a760e01b6001600160e01b0319831614610a51565b612d8c8686868686866146dd565b6001600160a01b0384163b15612d8c5760405163bc197c8160e01b81526001600160a01b0385169063bc197c8190613ef0908990899088908890889060040161566a565b602060405180830381600087803b158015613f0a57600080fd5b505af1925050508015613f3a575060408051601f3d908101601f19168201909252613f37918101906150bd565b60015b613fcd57613f46615e53565b806308c379a01415613f665750613f5b615e6a565b806123c15750613f68565b505b60405162461bcd60e51b815260206004820152603460248201527f455243313135353a207472616e7366657220746f206e6f6e20455243313135356044820152732932b1b2b4bb32b91034b6b83632b6b2b73a32b960611b6064820152608401610a15565b6001600160e01b0319811663bc197c8160e01b14611bc95760405162461bcd60e51b8152600401610a1590615810565b6060600061400c836002615cac565b614017906002615c0b565b6001600160401b0381111561403c57634e487b7160e01b600052604160045260246000fd5b6040519080825280601f01601f191660200182016040528015614066576020820181803683370190505b509050600360fc1b8160008151811061408f57634e487b7160e01b600052603260045260246000fd5b60200101906001600160f81b031916908160001a905350600f60fb1b816001815181106140cc57634e487b7160e01b600052603260045260246000fd5b60200101906001600160f81b031916908160001a90535060006140f0846002615cac565b6140fb906001615c0b565b90505b600181111561418f576f181899199a1a9b1b9c1cb0b131b232b360811b85600f166010811061413d57634e487b7160e01b600052603260045260246000fd5b1a60f81b82828151811061416157634e487b7160e01b600052603260045260246000fd5b60200101906001600160f81b031916908160001a90535060049490941c9361418881615d0e565b90506140fe565b50831561377e5760405162461bcd60e51b815260206004820181905260248201527f537472696e67733a20686578206c656e67746820696e73756666696369656e746044820152606401610a15565b6001600160a01b0383166142045760405162461bcd60e51b8152600401610a159061592a565b80518251146142255760405162461bcd60e51b8152600401610a1590615a37565b600033905061424881856000868660405180602001604052806000815250613e9e565b60005b835181101561432c57600084828151811061427657634e487b7160e01b600052603260045260246000fd5b6020026020010151905060008483815181106142a257634e487b7160e01b600052603260045260246000fd5b60209081029190910181015160008481526097835260408082206001600160a01b038c1683529093529190912054909150818110156142f35760405162461bcd60e51b8152600401610a1590615858565b60009283526097602090815260408085206001600160a01b038b168652909152909220910390558061432481615da8565b91505061424b565b5060006001600160a01b0316846001600160a01b0316826001600160a01b03167f4a39dc06d4c0dbc64b70af90fd698a233a518aa5d07e595d983b8c0526c8f7fb868660405161437d9291906157b6565b60405180910390a450505050565b600054610100900460ff16610a845760405162461bcd60e51b8152600401610a15906159ec565b6001600160a01b0383166143d85760405162461bcd60e51b8152600401610a159061592a565b33614407818560006143e9876145ba565b6143f2876145ba565b60405180602001604052806000815250613e9e565b60008381526097602090815260408083206001600160a01b03881684529091529020548281101561444a5760405162461bcd60e51b8152600401610a1590615858565b60008481526097602090815260408083206001600160a01b03898116808652918452828520888703905582518981529384018890529092908616917fc3d58168c5ae7397731d063d5bbf3d657854427343f4c083240f7aacaa2d0f62910160405180910390a45050505050565b6001600160a01b0384166145175760405162461bcd60e51b815260206004820152602160248201527f455243313135353a206d696e7420746f20746865207a65726f206164647265736044820152607360f81b6064820152608401610a15565b3361452881600087613d78886145ba565b60008481526097602090815260408083206001600160a01b03891684529091528120805485929061455a908490615c0b565b909155505060408051858152602081018590526001600160a01b0380881692600092918516917fc3d58168c5ae7397731d063d5bbf3d657854427343f4c083240f7aacaa2d0f62910160405180910390a4610f6f81600087878787614613565b6040805160018082528183019092526060916000919060208083019080368337019050509050828160008151811061460257634e487b7160e01b600052603260045260246000fd5b602090810291909101015292915050565b6001600160a01b0384163b15612d8c5760405163f23a6e6160e01b81526001600160a01b0385169063f23a6e619061465790899089908890889088906004016156c8565b602060405180830381600087803b15801561467157600080fd5b505af19250505080156146a1575060408051601f3d908101601f1916820190925261469e918101906150bd565b60015b6146ad57613f46615e53565b6001600160e01b0319811663f23a6e6160e01b14611bc95760405162461bcd60e51b8152600401610a1590615810565b6146eb868686868686614831565b6001600160a01b03851661478f5760005b835181101561478d5782818151811061472557634e487b7160e01b600052603260045260246000fd5b602002602001015161012d600086848151811061475257634e487b7160e01b600052603260045260246000fd5b6020026020010151815260200190815260200160002060008282546147779190615c0b565b90915550614786905081615da8565b90506146fc565b505b6001600160a01b038416612d8c5760005b8351811015611bc9578281815181106147c957634e487b7160e01b600052603260045260246000fd5b602002602001015161012d60008684815181106147f657634e487b7160e01b600052603260045260246000fd5b60200260200101518152602001908152602001600020600082825461481b9190615ccb565b9091555061482a905081615da8565b90506147a0565b60c95460ff1615612d8c5760405162461bcd60e51b815260206004820152602c60248201527f455243313135355061757361626c653a20746f6b656e207472616e736665722060448201526b1dda1a5b19481c185d5cd95960a21b6064820152608401610a15565b8280546148a590615d25565b90600052602060002090601f0160209004810192826148c7576000855561490d565b82601f106148e05782800160ff1982351617855561490d565b8280016001018555821561490d579182015b8281111561490d5782358255916020019190600101906148f2565b50612ace929150614a06565b60405180608001604052806004906020820280368337509192915050565b82805461494390615d25565b90600052602060002090601f016020900481019282614965576000855561490d565b82601f1061497e57805160ff191683800117855561490d565b8280016001018555821561490d579182015b8281111561490d578251825591602001919060010190614990565b5080546149b790615d25565b6000825580601f106149c95750610a8d565b601f016020900490600052602060002090810190610a8d9190614a06565b6040518061010001604052806008906020820280368337509192915050565b5b80821115612ace5760008155600101614a07565b8035610a5481615f17565b60008083601f840112614a37578182fd5b5081356001600160401b03811115614a4d578182fd5b6020830191508360208260051b8501011115614a6857600080fd5b9250929050565b600082601f830112614a7f578081fd5b81356020614a8c82615bc2565b604051614a998282615d5a565b8381528281019150858301600585901b87018401881015614ab8578586fd5b855b85811015614ad657813584529284019290840190600101614aba565b5090979650505050505050565b80358015158114610a5457600080fd5b600082601f830112614b03578081fd5b81356001600160401b03811115614b1c57614b1c615e3d565b604051614b33601f8301601f191660200182615d5a565b818152846020838601011115614b47578283fd5b816020850160208301379081016020019190915292915050565b803560058110610a5457600080fd5b60008083601f840112614b81578182fd5b5081356001600160401b03811115614b97578182fd5b602083019150836020828501011115614a6857600080fd5b803561ffff81168114610a5457600080fd5b803560ff81168114610a5457600080fd5b600060208284031215614be3578081fd5b813561377e81615f17565b60008060408385031215614c00578081fd5b8235614c0b81615f17565b946020939093013593505050565b60008060408385031215614c2b578182fd5b8235614c3681615f17565b91506020830135614c4681615f17565b809150509250929050565b600080600080600060a08688031215614c68578081fd5b8535614c7381615f17565b94506020860135614c8381615f17565b935060408601356001600160401b0380821115614c9e578283fd5b614caa89838a01614a6f565b94506060880135915080821115614cbf578283fd5b614ccb89838a01614a6f565b93506080880135915080821115614ce0578283fd5b50614ced88828901614af3565b9150509295509295909350565b600080600080600060a08688031215614d11578283fd5b8535614d1c81615f17565b94506020860135614d2c81615f17565b9350604086013592506060860135915060808601356001600160401b03811115614d54578182fd5b614ced88828901614af3565b60008060008060008060006080888a031215614d7a578485fd5b8735614d8581615f17565b965060208801356001600160401b0380821115614da0578687fd5b614dac8b838c01614a26565b909850965060408a0135915080821115614dc4578384fd5b614dd08b838c01614a26565b909650945060608a0135915080821115614de8578384fd5b50614df58a828b01614a26565b989b979a50959850939692959293505050565b600080600060608486031215614e1c578081fd5b8335614e2781615f17565b925060208401356001600160401b0380821115614e42578283fd5b614e4e87838801614a6f565b93506040860135915080821115614e63578283fd5b50614e7086828701614a6f565b9150509250925092565b60008060408385031215614e8c578182fd5b8235614e9781615f17565b9150614ea560208401614ae3565b90509250929050565b60008060408385031215614c00578182fd5b600080600060608486031215614ed4578081fd5b8335614edf81615f17565b95602085013595506040909401359392505050565b60008060408385031215614f06578182fd5b82356001600160401b0380821115614f1c578384fd5b818501915085601f830112614f2f578384fd5b81356020614f3c82615bc2565b604051614f498282615d5a565b8381528281019150858301600585901b870184018b1015614f68578889fd5b8896505b84871015614f93578035614f7f81615f17565b835260019690960195918301918301614f6c565b5096505086013592505080821115614fa9578283fd5b50614fb685828601614a6f565b9150509250929050565b6000610100808385031215614fd3578182fd5b838184011115614fe1578182fd5b509092915050565b60008060008060608587031215614ffe578182fd5b84356001600160401b03811115615013578283fd5b61501f87828801614a26565b9095509350615032905060208601614bc1565b915061504060408601614bc1565b905092959194509250565b60006020828403121561505c578081fd5b61377e82614ae3565b600060208284031215615076578081fd5b5035919050565b6000806040838503121561508f578182fd5b823591506020830135614c4681615f17565b6000602082840312156150b2578081fd5b813561377e81615f2c565b6000602082840312156150ce578081fd5b815161377e81615f2c565b600080604083850312156150eb578182fd5b6150f483614b61565b9150614ea560208401614bc1565b60008060008060008060008060008060a08b8d031215615120578384fd5b8a356001600160401b0380821115615136578586fd5b6151428e838f01614b70565b909c509a5060208d013591508082111561515a578586fd5b6151668e838f01614b70565b909a50985060408d013591508082111561517e578586fd5b61518a8e838f01614b70565b909850965060608d01359150808211156151a2578586fd5b6151ae8e838f01614b70565b909650945060808d01359150808211156151c6578384fd5b506151d38d828e01614b70565b915080935050809150509295989b9194979a5092959850565b6000602082840312156151fd578081fd5b81356001600160401b03811115615212578182fd5b613ac584828501614af3565b60008060008060008060c08789031215615236578384fd5b86356001600160401b038082111561524c578586fd5b6152588a838b01614af3565b9750602089013591508082111561526d578586fd5b6152798a838b01614af3565b9650604089013591508082111561528e578586fd5b61529a8a838b01614af3565b955060608901359150808211156152af578384fd5b506152bc89828a01614af3565b9350506152cb60808801614a1b565b91506152d960a08801614a1b565b90509295509295509295565b600080604083850312156152f7578182fd5b61530083614baf565b9150614ea560208401614baf565b60008060008060008060008060008060006101608c8e03121561532f578485fd5b6153388c614baf565b9a5061534660208d01614baf565b995061535460408d01614baf565b985061536260608d01614baf565b975060808c013561537281615f17565b965060a08c013561538281615f17565b955061539060c08d01614ae3565b945061539e60e08d01614ae3565b93506153ad6101008d01614ae3565b92506153bc6101208d01614bc1565b91506153cb6101408d01614b61565b90509295989b509295989b9093969950565b600080604083850312156153ef578182fd5b50508035926020909101359150565b60006020828403121561540f578081fd5b813561377e81615f42565b60006020828403121561542b578081fd5b815161377e81615f42565b81835260006001600160fb1b0383111561544e578081fd5b8260051b80836020870137939093016020019283525090919050565b6000815180845260208085019450808401835b838110156154995781518752958201959082019060010161547d565b509495945050505050565b600081518084526154bc816020860160208601615ce2565b601f01601f19169290920160200192915050565b600581106154ee57634e487b7160e01b600052602160045260246000fd5b9052565b8054600090600181811c908083168061550c57607f831692505b602080841082141561552c57634e487b7160e01b86526022600452602486fd5b81801561554057600181146155515761557e565b60ff1986168952848901965061557e565b60008881526020902060005b868110156155765781548b82015290850190830161555d565b505084890196505b50505050505092915050565b6000835161559c818460208801615ce2565b6155a8818401856154f2565b95945050505050565b600085516155c3818460208a01615ce2565b6155d86155d2828501886154f2565b866154f2565b905083516155ea818360208801615ce2565b019695505050505050565b60007f416363657373436f6e74726f6c3a206163636f756e74200000000000000000008252835161562d816017850160208801615ce2565b7001034b99036b4b9b9b4b733903937b6329607d1b601791840191820152835161565e816028840160208801615ce2565b01602801949350505050565b6001600160a01b0386811682528516602082015260a0604082018190526000906156969083018661546a565b82810360608401526156a8818661546a565b905082810360808401526156bc81856154a4565b98975050505050505050565b6001600160a01b03868116825285166020820152604081018490526060810183905260a060808201819052600090615702908301846154a4565b979650505050505050565b6101008101818360005b60088110156157385781511515835260209283019290910190600101615717565b50505092915050565b60808101818360005b600481101561573857815183526020928301929091019060010161574a565b60006060825261577d606083018789615436565b8281036020840152615790818688615436565b9150508260408301529695505050505050565b60006020825261377e602083018461546a565b6000604082526157c9604083018561546a565b82810360208401526155a8818561546a565b60006020825261377e60208301846154a4565b60006040825261580160408301856154a4565b905061377e60208301846154d0565b60208082526028908201527f455243313135353a204552433131353552656365697665722072656a656374656040820152676420746f6b656e7360c01b606082015260800190565b60208082526024908201527f455243313135353a206275726e20616d6f756e7420657863656564732062616c604082015263616e636560e01b606082015260800190565b60208082526029908201527f455243313135353a2063616c6c6572206973206e6f74206f776e6572206e6f7260408201526808185c1c1c9bdd995960ba1b606082015260800190565b60208082526025908201527f455243313135353a207472616e7366657220746f20746865207a65726f206164604082015264647265737360d81b606082015260800190565b60208082526023908201527f455243313135353a206275726e2066726f6d20746865207a65726f206164647260408201526265737360e81b606082015260800190565b6020808252602a908201527f455243313135353a20696e73756666696369656e742062616c616e636520666f60408201526939103a3930b739b332b960b11b606082015260800190565b6020808252818101527f4f776e61626c653a2063616c6c6572206973206e6f7420746865206f776e6572604082015260600190565b6020808252602b908201527f496e697469616c697a61626c653a20636f6e7472616374206973206e6f74206960408201526a6e697469616c697a696e6760a81b606082015260800190565b60208082526028908201527f455243313135353a2069647320616e6420616d6f756e7473206c656e677468206040820152670dad2e6dac2e8c6d60c31b606082015260800190565b61ffff8c811682528b811660208301528a81166040830152891660608201526001600160a01b038881166080830152871660a082015285151560c082015284151560e082015283151561010082015260ff83166101208201526101608101615aeb6101408301846154d0565b9c9b505050505050505050505050565b8881526001600160801b038816602082015260ff8781166040830152861660608201526001600160a01b038516608082015260e060a08201819052600090615b469083018587615436565b90508260c08301529998505050505050505050565b63ffffffff8416815260ff8316602082015260608101613ac560408301846154d0565b6000808335601e19843603018112615b94578283fd5b8301803591506001600160401b03821115615bad578283fd5b602001915036819003821315614a6857600080fd5b60006001600160401b03821115615bdb57615bdb615e3d565b5060051b60200190565b600061ffff808316818516808303821115615c0257615c02615e11565b01949350505050565b60008219821115615c1e57615c1e615e11565b500190565b600060ff821660ff84168060ff03821115615c4057615c40615e11565b019392505050565b600082615c5757615c57615e27565b500490565b60006001600160801b0380831681851681830481118215151615615c8257615c82615e11565b02949350505050565b600061ffff80831681851681830481118215151615615c8257615c82615e11565b6000816000190483118215151615615cc657615cc6615e11565b500290565b600082821015615cdd57615cdd615e11565b500390565b60005b83811015615cfd578181015183820152602001615ce5565b838111156114985750506000910152565b600081615d1d57615d1d615e11565b506000190190565b600181811c90821680615d3957607f821691505b60208210811415610e2857634e487b7160e01b600052602260045260246000fd5b601f8201601f191681016001600160401b0381118282101715615d7f57615d7f615e3d565b6040525050565b600061ffff80831681811415615d9e57615d9e615e11565b6001019392505050565b6000600019821415615dbc57615dbc615e11565b5060010190565b600063ffffffff80831681811415615d9e57615d9e615e11565b600060ff821660ff811415615df457615df4615e11565b60010192915050565b600082615e0c57615e0c615e27565b500690565b634e487b7160e01b600052601160045260246000fd5b634e487b7160e01b600052601260045260246000fd5b634e487b7160e01b600052604160045260246000fd5b600060033d1115610b8757600481823e5160e01c90565b600060443d1015615e7a57610b87565b6040516003193d81016004833e81513d6001600160401b038160248401118184111715615eab575050505050610b87565b8285019150815181811115615ec557505050505050610b87565b843d8701016020828501011115615ee157505050505050610b87565b615ef060208286010187615d5a565b509094505050505090565b60008060233d1115615f135760206004833e51600191505b9091565b6001600160a01b0381168114610a8d57600080fd5b6001600160e01b031981168114610a8d57600080fd5b63ffffffff81168114610a8d57600080fdfe4504b9dfd7400a1522f49a8b4a100552da9236849581fd59b7363eb48c6a474ca2646970667358221220c8d2e201a8ca5a16db2fcbc2a0265c17cf7b0791d53a62c314db1cc6b4b2886f64736f6c63430008030033",
  "linkReferences": {},
  "deployedLinkReferences": {}
}