{
  "_format": "hh-sol-artifact-1",
  "contractName": "MIPTickets",
  "sourceName": "contracts/MIPTickets.sol",
  "abi": [
    {
      "inputs": [
        {
          "internalType": "string",
          "name": "_name",
          "type": "string"
        },
        {
          "internalType": "string",
          "name": "_symbol",
          "type": "string"
        }
      ],
      "stateMutability": "nonpayable",
      "type": "constructor"
    },
    {
      "anonymous": false,
      "inputs": [
        {
          "indexed": true,
          "internalType": "address",
          "name": "account",
          "type": "address"
        },
        {
          "indexed": true,
          "internalType": "address",
          "name": "operator",
          "type": "address"
        },
        {
          "indexed": false,
          "internalType": "bool",
          "name": "approved",
          "type": "bool"
        }
      ],
      "name": "ApprovalForAll",
      "type": "event"
    },
    {
      "anonymous": false,
      "inputs": [
        {
          "indexed": false,
          "internalType": "uint256",
          "name": "passId",
          "type": "uint256"
        },
        {
          "indexed": true,
          "internalType": "address",
          "name": "account",
          "type": "address"
        },
        {
          "indexed": false,
          "internalType": "uint32",
          "name": "amount",
          "type": "uint32"
        }
      ],
      "name": "Claimed",
      "type": "event"
    },
    {
      "anonymous": false,
      "inputs": [
        {
          "indexed": true,
          "internalType": "address",
          "name": "previousOwner",
          "type": "address"
        },
        {
          "indexed": true,
          "internalType": "address",
          "name": "newOwner",
          "type": "address"
        }
      ],
      "name": "OwnershipTransferred",
      "type": "event"
    },
    {
      "anonymous": false,
      "inputs": [
        {
          "indexed": false,
          "internalType": "address",
          "name": "account",
          "type": "address"
        }
      ],
      "name": "Paused",
      "type": "event"
    },
    {
      "anonymous": false,
      "inputs": [
        {
          "indexed": true,
          "internalType": "bytes32",
          "name": "role",
          "type": "bytes32"
        },
        {
          "indexed": true,
          "internalType": "bytes32",
          "name": "previousAdminRole",
          "type": "bytes32"
        },
        {
          "indexed": true,
          "internalType": "bytes32",
          "name": "newAdminRole",
          "type": "bytes32"
        }
      ],
      "name": "RoleAdminChanged",
      "type": "event"
    },
    {
      "anonymous": false,
      "inputs": [
        {
          "indexed": true,
          "internalType": "bytes32",
          "name": "role",
          "type": "bytes32"
        },
        {
          "indexed": true,
          "internalType": "address",
          "name": "account",
          "type": "address"
        },
        {
          "indexed": true,
          "internalType": "address",
          "name": "sender",
          "type": "address"
        }
      ],
      "name": "RoleGranted",
      "type": "event"
    },
    {
      "anonymous": false,
      "inputs": [
        {
          "indexed": true,
          "internalType": "bytes32",
          "name": "role",
          "type": "bytes32"
        },
        {
          "indexed": true,
          "internalType": "address",
          "name": "account",
          "type": "address"
        },
        {
          "indexed": true,
          "internalType": "address",
          "name": "sender",
          "type": "address"
        }
      ],
      "name": "RoleRevoked",
      "type": "event"
    },
    {
      "anonymous": false,
      "inputs": [
        {
          "indexed": true,
          "internalType": "address",
          "name": "operator",
          "type": "address"
        },
        {
          "indexed": true,
          "internalType": "address",
          "name": "from",
          "type": "address"
        },
        {
          "indexed": true,
          "internalType": "address",
          "name": "to",
          "type": "address"
        },
        {
          "indexed": false,
          "internalType": "uint256[]",
          "name": "ids",
          "type": "uint256[]"
        },
        {
          "indexed": false,
          "internalType": "uint256[]",
          "name": "values",
          "type": "uint256[]"
        }
      ],
      "name": "TransferBatch",
      "type": "event"
    },
    {
      "anonymous": false,
      "inputs": [
        {
          "indexed": true,
          "internalType": "address",
          "name": "operator",
          "type": "address"
        },
        {
          "indexed": true,
          "internalType": "address",
          "name": "from",
          "type": "address"
        },
        {
          "indexed": true,
          "internalType": "address",
          "name": "to",
          "type": "address"
        },
        {
          "indexed": false,
          "internalType": "uint256",
          "name": "id",
          "type": "uint256"
        },
        {
          "indexed": false,
          "internalType": "uint256",
          "name": "value",
          "type": "uint256"
        }
      ],
      "name": "TransferSingle",
      "type": "event"
    },
    {
      "anonymous": false,
      "inputs": [
        {
          "indexed": false,
          "internalType": "string",
          "name": "value",
          "type": "string"
        },
        {
          "indexed": true,
          "internalType": "uint256",
          "name": "id",
          "type": "uint256"
        }
      ],
      "name": "URI",
      "type": "event"
    },
    {
      "anonymous": false,
      "inputs": [
        {
          "indexed": false,
          "internalType": "address",
          "name": "account",
          "type": "address"
        }
      ],
      "name": "Unpaused",
      "type": "event"
    },
    {
      "inputs": [],
      "name": "DEFAULT_ADMIN_ROLE",
      "outputs": [
        {
          "internalType": "bytes32",
          "name": "",
          "type": "bytes32"
        }
      ],
      "stateMutability": "view",
      "type": "function"
    },
    {
      "inputs": [],
      "name": "DEVELOPER_ROLE",
      "outputs": [
        {
          "internalType": "bytes32",
          "name": "",
          "type": "bytes32"
        }
      ],
      "stateMutability": "view",
      "type": "function"
    },
    {
      "inputs": [
        {
          "internalType": "uint32",
          "name": "_startTimestamp",
          "type": "uint32"
        },
        {
          "internalType": "uint32",
          "name": "_endTimestamp",
          "type": "uint32"
        },
        {
          "internalType": "uint256",
          "name": "_mintPrice",
          "type": "uint256"
        },
        {
          "internalType": "uint32",
          "name": "_totalPassAmount",
          "type": "uint32"
        },
        {
          "internalType": "string",
          "name": "_metadataURL",
          "type": "string"
        },
        {
          "internalType": "address",
          "name": "_redeemableContract",
          "type": "address"
        },
        {
          "internalType": "uint32",
          "name": "_maxPerWallet",
          "type": "uint32"
        },
        {
          "internalType": "uint32",
          "name": "_redeemAmountPerPass",
          "type": "uint32"
        }
      ],
      "name": "addPass",
      "outputs": [],
      "stateMutability": "nonpayable",
      "type": "function"
    },
    {
      "inputs": [
        {
          "internalType": "uint64",
          "name": "_passId",
          "type": "uint64"
        },
        {
          "internalType": "address[]",
          "name": "_wallets",
          "type": "address[]"
        }
      ],
      "name": "addWhitelistedBatch",
      "outputs": [],
      "stateMutability": "nonpayable",
      "type": "function"
    },
    {
      "inputs": [
        {
          "internalType": "uint64",
          "name": "passId",
          "type": "uint64"
        }
      ],
      "name": "amIWhitelisted",
      "outputs": [
        {
          "internalType": "bool",
          "name": "",
          "type": "bool"
        }
      ],
      "stateMutability": "view",
      "type": "function"
    },
    {
      "inputs": [
        {
          "internalType": "uint64",
          "name": "_passId",
          "type": "uint64"
        }
      ],
      "name": "arePassesAvailable",
      "outputs": [
        {
          "internalType": "bool",
          "name": "",
          "type": "bool"
        }
      ],
      "stateMutability": "view",
      "type": "function"
    },
    {
      "inputs": [
        {
          "internalType": "address",
          "name": "account",
          "type": "address"
        },
        {
          "internalType": "uint256",
          "name": "id",
          "type": "uint256"
        }
      ],
      "name": "balanceOf",
      "outputs": [
        {
          "internalType": "uint256",
          "name": "",
          "type": "uint256"
        }
      ],
      "stateMutability": "view",
      "type": "function"
    },
    {
      "inputs": [
        {
          "internalType": "address[]",
          "name": "accounts",
          "type": "address[]"
        },
        {
          "internalType": "uint256[]",
          "name": "ids",
          "type": "uint256[]"
        }
      ],
      "name": "balanceOfBatch",
      "outputs": [
        {
          "internalType": "uint256[]",
          "name": "",
          "type": "uint256[]"
        }
      ],
      "stateMutability": "view",
      "type": "function"
    },
    {
      "inputs": [
        {
          "internalType": "address",
          "name": "account",
          "type": "address"
        },
        {
          "internalType": "uint256",
          "name": "id",
          "type": "uint256"
        },
        {
          "internalType": "uint256",
          "name": "value",
          "type": "uint256"
        }
      ],
      "name": "burn",
      "outputs": [],
      "stateMutability": "nonpayable",
      "type": "function"
    },
    {
      "inputs": [
        {
          "internalType": "address",
          "name": "account",
          "type": "address"
        },
        {
          "internalType": "uint256[]",
          "name": "ids",
          "type": "uint256[]"
        },
        {
          "internalType": "uint256[]",
          "name": "values",
          "type": "uint256[]"
        }
      ],
      "name": "burnBatch",
      "outputs": [],
      "stateMutability": "nonpayable",
      "type": "function"
    },
    {
      "inputs": [
        {
          "internalType": "address",
          "name": "account",
          "type": "address"
        },
        {
          "internalType": "uint64",
          "name": "passId",
          "type": "uint64"
        },
        {
          "internalType": "uint32",
          "name": "quantity",
          "type": "uint32"
        }
      ],
      "name": "burnFromRedeem",
      "outputs": [],
      "stateMutability": "nonpayable",
      "type": "function"
    },
    {
      "inputs": [
        {
          "internalType": "uint64",
          "name": "_passId",
          "type": "uint64"
        },
        {
          "internalType": "uint32",
          "name": "_quantity",
          "type": "uint32"
        }
      ],
      "name": "claim",
      "outputs": [],
      "stateMutability": "payable",
      "type": "function"
    },
    {
      "inputs": [
        {
          "internalType": "address",
          "name": "account",
          "type": "address"
        },
        {
          "internalType": "uint64",
          "name": "passId",
          "type": "uint64"
        },
        {
          "internalType": "uint32",
          "name": "quantity",
          "type": "uint32"
        }
      ],
      "name": "claimFromRedeem",
      "outputs": [],
      "stateMutability": "nonpayable",
      "type": "function"
    },
    {
      "inputs": [
        {
          "internalType": "uint64",
          "name": "passId",
          "type": "uint64"
        }
      ],
      "name": "closeSale",
      "outputs": [],
      "stateMutability": "nonpayable",
      "type": "function"
    },
    {
      "inputs": [
        {
          "internalType": "uint64[]",
          "name": "_passIds",
          "type": "uint64[]"
        }
      ],
      "name": "closeSaleBatch",
      "outputs": [],
      "stateMutability": "nonpayable",
      "type": "function"
    },
    {
      "inputs": [],
      "name": "creator1Address",
      "outputs": [
        {
          "internalType": "address",
          "name": "",
          "type": "address"
        }
      ],
      "stateMutability": "view",
      "type": "function"
    },
    {
      "inputs": [],
      "name": "creator2Address",
      "outputs": [
        {
          "internalType": "address",
          "name": "",
          "type": "address"
        }
      ],
      "stateMutability": "view",
      "type": "function"
    },
    {
      "inputs": [
        {
          "internalType": "address",
          "name": "_wallet",
          "type": "address"
        }
      ],
      "name": "demoteTeamMember",
      "outputs": [],
      "stateMutability": "nonpayable",
      "type": "function"
    },
    {
      "inputs": [],
      "name": "developerAddress",
      "outputs": [
        {
          "internalType": "address",
          "name": "",
          "type": "address"
        }
      ],
      "stateMutability": "view",
      "type": "function"
    },
    {
      "inputs": [
        {
          "internalType": "uint64",
          "name": "_passId",
          "type": "uint64"
        },
        {
          "internalType": "bool",
          "name": "_saleIsOpen",
          "type": "bool"
        },
        {
          "internalType": "bool",
          "name": "_limitToOnePassType",
          "type": "bool"
        },
        {
          "internalType": "uint32",
          "name": "_startTimestamp",
          "type": "uint32"
        },
        {
          "internalType": "uint32",
          "name": "_endTimestamp",
          "type": "uint32"
        },
        {
          "internalType": "uint256",
          "name": "_mintPrice",
          "type": "uint256"
        },
        {
          "internalType": "uint32",
          "name": "_totalPassAmount",
          "type": "uint32"
        },
        {
          "internalType": "string",
          "name": "_metadataURL",
          "type": "string"
        },
        {
          "internalType": "address",
          "name": "_redeemableContract",
          "type": "address"
        },
        {
          "internalType": "uint32",
          "name": "_maxPerWallet",
          "type": "uint32"
        },
        {
          "internalType": "uint32",
          "name": "_redeemAmountPerPass",
          "type": "uint32"
        }
      ],
      "name": "editPass",
      "outputs": [],
      "stateMutability": "nonpayable",
      "type": "function"
    },
    {
      "inputs": [
        {
          "internalType": "uint256",
          "name": "id",
          "type": "uint256"
        }
      ],
      "name": "exists",
      "outputs": [
        {
          "internalType": "bool",
          "name": "",
          "type": "bool"
        }
      ],
      "stateMutability": "view",
      "type": "function"
    },
    {
      "inputs": [
        {
          "internalType": "uint64",
          "name": "_passId",
          "type": "uint64"
        },
        {
          "internalType": "address",
          "name": "_wallet",
          "type": "address"
        }
      ],
      "name": "getClaimedPasses",
      "outputs": [
        {
          "internalType": "uint64",
          "name": "",
          "type": "uint64"
        }
      ],
      "stateMutability": "view",
      "type": "function"
    },
    {
      "inputs": [
        {
          "internalType": "uint64",
          "name": "passId",
          "type": "uint64"
        }
      ],
      "name": "getLimitToOnePassType",
      "outputs": [
        {
          "internalType": "bool",
          "name": "",
          "type": "bool"
        }
      ],
      "stateMutability": "view",
      "type": "function"
    },
    {
      "inputs": [
        {
          "internalType": "uint64",
          "name": "passId",
          "type": "uint64"
        }
      ],
      "name": "getMaxPerWallet",
      "outputs": [
        {
          "internalType": "uint32",
          "name": "",
          "type": "uint32"
        }
      ],
      "stateMutability": "view",
      "type": "function"
    },
    {
      "inputs": [
        {
          "internalType": "uint64",
          "name": "passId",
          "type": "uint64"
        }
      ],
      "name": "getMintPrice",
      "outputs": [
        {
          "internalType": "uint256",
          "name": "",
          "type": "uint256"
        }
      ],
      "stateMutability": "view",
      "type": "function"
    },
    {
      "inputs": [
        {
          "internalType": "uint64",
          "name": "passId",
          "type": "uint64"
        }
      ],
      "name": "getRedeemAmountPerPass",
      "outputs": [
        {
          "internalType": "uint32",
          "name": "",
          "type": "uint32"
        }
      ],
      "stateMutability": "view",
      "type": "function"
    },
    {
      "inputs": [
        {
          "internalType": "uint64",
          "name": "passId",
          "type": "uint64"
        }
      ],
      "name": "getRedeemableContract",
      "outputs": [
        {
          "internalType": "address",
          "name": "",
          "type": "address"
        }
      ],
      "stateMutability": "view",
      "type": "function"
    },
    {
      "inputs": [
        {
          "internalType": "bytes32",
          "name": "role",
          "type": "bytes32"
        }
      ],
      "name": "getRoleAdmin",
      "outputs": [
        {
          "internalType": "bytes32",
          "name": "",
          "type": "bytes32"
        }
      ],
      "stateMutability": "view",
      "type": "function"
    },
    {
      "inputs": [
        {
          "internalType": "uint64",
          "name": "passId",
          "type": "uint64"
        }
      ],
      "name": "getTimeWindow",
      "outputs": [
        {
          "internalType": "uint32[2]",
          "name": "timeWindow",
          "type": "uint32[2]"
        }
      ],
      "stateMutability": "view",
      "type": "function"
    },
    {
      "inputs": [
        {
          "internalType": "uint64",
          "name": "passId",
          "type": "uint64"
        }
      ],
      "name": "getTotalPassAmount",
      "outputs": [
        {
          "internalType": "uint32",
          "name": "",
          "type": "uint32"
        }
      ],
      "stateMutability": "view",
      "type": "function"
    },
    {
      "inputs": [
        {
          "internalType": "uint64",
          "name": "passId",
          "type": "uint64"
        }
      ],
      "name": "getUserClaimedPasses",
      "outputs": [
        {
          "internalType": "uint64",
          "name": "",
          "type": "uint64"
        }
      ],
      "stateMutability": "view",
      "type": "function"
    },
    {
      "inputs": [
        {
          "internalType": "uint64",
          "name": "passId",
          "type": "uint64"
        }
      ],
      "name": "getUserPassesLeft",
      "outputs": [
        {
          "internalType": "uint64",
          "name": "",
          "type": "uint64"
        }
      ],
      "stateMutability": "view",
      "type": "function"
    },
    {
      "inputs": [
        {
          "internalType": "uint64",
          "name": "passId",
          "type": "uint64"
        },
        {
          "internalType": "address",
          "name": "_wallet",
          "type": "address"
        }
      ],
      "name": "getWhitelisted",
      "outputs": [
        {
          "internalType": "bool",
          "name": "",
          "type": "bool"
        }
      ],
      "stateMutability": "view",
      "type": "function"
    },
    {
      "inputs": [
        {
          "internalType": "bytes32",
          "name": "role",
          "type": "bytes32"
        },
        {
          "internalType": "address",
          "name": "account",
          "type": "address"
        }
      ],
      "name": "grantRole",
      "outputs": [],
      "stateMutability": "nonpayable",
      "type": "function"
    },
    {
      "inputs": [
        {
          "internalType": "bytes32",
          "name": "role",
          "type": "bytes32"
        },
        {
          "internalType": "address",
          "name": "account",
          "type": "address"
        }
      ],
      "name": "hasRole",
      "outputs": [
        {
          "internalType": "bool",
          "name": "",
          "type": "bool"
        }
      ],
      "stateMutability": "view",
      "type": "function"
    },
    {
      "inputs": [
        {
          "internalType": "address",
          "name": "account",
          "type": "address"
        },
        {
          "internalType": "address",
          "name": "operator",
          "type": "address"
        }
      ],
      "name": "isApprovedForAll",
      "outputs": [
        {
          "internalType": "bool",
          "name": "",
          "type": "bool"
        }
      ],
      "stateMutability": "view",
      "type": "function"
    },
    {
      "inputs": [
        {
          "internalType": "uint64",
          "name": "passId",
          "type": "uint64"
        }
      ],
      "name": "isSaleOpen",
      "outputs": [
        {
          "internalType": "bool",
          "name": "",
          "type": "bool"
        }
      ],
      "stateMutability": "view",
      "type": "function"
    },
    {
      "inputs": [
        {
          "internalType": "address",
          "name": "to",
          "type": "address"
        },
        {
          "internalType": "uint32",
          "name": "quantity",
          "type": "uint32"
        },
        {
          "internalType": "uint64",
          "name": "pIndex",
          "type": "uint64"
        }
      ],
      "name": "mint",
      "outputs": [],
      "stateMutability": "nonpayable",
      "type": "function"
    },
    {
      "inputs": [
        {
          "internalType": "address",
          "name": "to",
          "type": "address"
        },
        {
          "internalType": "uint256[]",
          "name": "quantity",
          "type": "uint256[]"
        },
        {
          "internalType": "uint256[]",
          "name": "pIndexes",
          "type": "uint256[]"
        }
      ],
      "name": "mintBatch",
      "outputs": [],
      "stateMutability": "nonpayable",
      "type": "function"
    },
    {
      "inputs": [],
      "name": "name",
      "outputs": [
        {
          "internalType": "string",
          "name": "",
          "type": "string"
        }
      ],
      "stateMutability": "view",
      "type": "function"
    },
    {
      "inputs": [],
      "name": "name_",
      "outputs": [
        {
          "internalType": "string",
          "name": "",
          "type": "string"
        }
      ],
      "stateMutability": "view",
      "type": "function"
    },
    {
      "inputs": [
        {
          "internalType": "uint64",
          "name": "passId",
          "type": "uint64"
        }
      ],
      "name": "openSale",
      "outputs": [],
      "stateMutability": "nonpayable",
      "type": "function"
    },
    {
      "inputs": [
        {
          "internalType": "uint64[]",
          "name": "_passIds",
          "type": "uint64[]"
        }
      ],
      "name": "openSaleBatch",
      "outputs": [],
      "stateMutability": "nonpayable",
      "type": "function"
    },
    {
      "inputs": [],
      "name": "owner",
      "outputs": [
        {
          "internalType": "address",
          "name": "",
          "type": "address"
        }
      ],
      "stateMutability": "view",
      "type": "function"
    },
    {
      "inputs": [],
      "name": "pause",
      "outputs": [],
      "stateMutability": "nonpayable",
      "type": "function"
    },
    {
      "inputs": [],
      "name": "paused",
      "outputs": [
        {
          "internalType": "bool",
          "name": "",
          "type": "bool"
        }
      ],
      "stateMutability": "view",
      "type": "function"
    },
    {
      "inputs": [
        {
          "internalType": "address",
          "name": "_wallet",
          "type": "address"
        }
      ],
      "name": "promoteTeamMember",
      "outputs": [],
      "stateMutability": "nonpayable",
      "type": "function"
    },
    {
      "inputs": [
        {
          "internalType": "uint64",
          "name": "_passId",
          "type": "uint64"
        },
        {
          "internalType": "address[]",
          "name": "_wallets",
          "type": "address[]"
        }
      ],
      "name": "removeWhitelistedBatch",
      "outputs": [],
      "stateMutability": "nonpayable",
      "type": "function"
    },
    {
      "inputs": [],
      "name": "renounceOwnership",
      "outputs": [],
      "stateMutability": "nonpayable",
      "type": "function"
    },
    {
      "inputs": [
        {
          "internalType": "bytes32",
          "name": "role",
          "type": "bytes32"
        },
        {
          "internalType": "address",
          "name": "account",
          "type": "address"
        }
      ],
      "name": "renounceRole",
      "outputs": [],
      "stateMutability": "nonpayable",
      "type": "function"
    },
    {
      "inputs": [
        {
          "internalType": "bytes32",
          "name": "role",
          "type": "bytes32"
        },
        {
          "internalType": "address",
          "name": "account",
          "type": "address"
        }
      ],
      "name": "revokeRole",
      "outputs": [],
      "stateMutability": "nonpayable",
      "type": "function"
    },
    {
      "inputs": [
        {
          "internalType": "address",
          "name": "from",
          "type": "address"
        },
        {
          "internalType": "address",
          "name": "to",
          "type": "address"
        },
        {
          "internalType": "uint256[]",
          "name": "ids",
          "type": "uint256[]"
        },
        {
          "internalType": "uint256[]",
          "name": "amounts",
          "type": "uint256[]"
        },
        {
          "internalType": "bytes",
          "name": "data",
          "type": "bytes"
        }
      ],
      "name": "safeBatchTransferFrom",
      "outputs": [],
      "stateMutability": "nonpayable",
      "type": "function"
    },
    {
      "inputs": [
        {
          "internalType": "address",
          "name": "from",
          "type": "address"
        },
        {
          "internalType": "address",
          "name": "to",
          "type": "address"
        },
        {
          "internalType": "uint256",
          "name": "id",
          "type": "uint256"
        },
        {
          "internalType": "uint256",
          "name": "amount",
          "type": "uint256"
        },
        {
          "internalType": "bytes",
          "name": "data",
          "type": "bytes"
        }
      ],
      "name": "safeTransferFrom",
      "outputs": [],
      "stateMutability": "nonpayable",
      "type": "function"
    },
    {
      "inputs": [
        {
          "internalType": "address",
          "name": "operator",
          "type": "address"
        },
        {
          "internalType": "bool",
          "name": "approved",
          "type": "bool"
        }
      ],
      "name": "setApprovalForAll",
      "outputs": [],
      "stateMutability": "nonpayable",
      "type": "function"
    },
    {
      "inputs": [
        {
          "internalType": "uint64",
          "name": "_passId",
          "type": "uint64"
        },
        {
          "internalType": "address",
          "name": "_wallet",
          "type": "address"
        },
        {
          "internalType": "uint64",
          "name": "_quantity",
          "type": "uint64"
        }
      ],
      "name": "setClaimedPasses",
      "outputs": [],
      "stateMutability": "nonpayable",
      "type": "function"
    },
    {
      "inputs": [
        {
          "internalType": "uint64",
          "name": "passId",
          "type": "uint64"
        },
        {
          "internalType": "bool",
          "name": "_limitToOnePassType",
          "type": "bool"
        }
      ],
      "name": "setLimitToOnePassType",
      "outputs": [],
      "stateMutability": "nonpayable",
      "type": "function"
    },
    {
      "inputs": [
        {
          "internalType": "address",
          "name": "_addr",
          "type": "address"
        }
      ],
      "name": "setOwner",
      "outputs": [],
      "stateMutability": "nonpayable",
      "type": "function"
    },
    {
      "inputs": [
        {
          "internalType": "string",
          "name": "baseURI",
          "type": "string"
        }
      ],
      "name": "setURI",
      "outputs": [],
      "stateMutability": "nonpayable",
      "type": "function"
    },
    {
      "inputs": [
        {
          "internalType": "bytes4",
          "name": "interfaceId",
          "type": "bytes4"
        }
      ],
      "name": "supportsInterface",
      "outputs": [
        {
          "internalType": "bool",
          "name": "",
          "type": "bool"
        }
      ],
      "stateMutability": "view",
      "type": "function"
    },
    {
      "inputs": [],
      "name": "symbol",
      "outputs": [
        {
          "internalType": "string",
          "name": "",
          "type": "string"
        }
      ],
      "stateMutability": "view",
      "type": "function"
    },
    {
      "inputs": [],
      "name": "symbol_",
      "outputs": [
        {
          "internalType": "string",
          "name": "",
          "type": "string"
        }
      ],
      "stateMutability": "view",
      "type": "function"
    },
    {
      "inputs": [
        {
          "internalType": "uint256",
          "name": "id",
          "type": "uint256"
        }
      ],
      "name": "totalSupply",
      "outputs": [
        {
          "internalType": "uint256",
          "name": "",
          "type": "uint256"
        }
      ],
      "stateMutability": "view",
      "type": "function"
    },
    {
      "inputs": [
        {
          "internalType": "address",
          "name": "newOwner",
          "type": "address"
        }
      ],
      "name": "transferOwnership",
      "outputs": [],
      "stateMutability": "nonpayable",
      "type": "function"
    },
    {
      "inputs": [],
      "name": "unpause",
      "outputs": [],
      "stateMutability": "nonpayable",
      "type": "function"
    },
    {
      "inputs": [
        {
          "internalType": "uint256",
          "name": "_id",
          "type": "uint256"
        }
      ],
      "name": "uri",
      "outputs": [
        {
          "internalType": "string",
          "name": "",
          "type": "string"
        }
      ],
      "stateMutability": "view",
      "type": "function"
    },
    {
      "inputs": [],
      "name": "withdrawAll",
      "outputs": [],
      "stateMutability": "nonpayable",
      "type": "function"
    },
    {
      "inputs": [
        {
          "internalType": "address payable",
          "name": "_to",
          "type": "address"
        },
        {
          "internalType": "uint256",
          "name": "_amount",
          "type": "uint256"
        }
      ],
      "name": "withdrawEther",
      "outputs": [],
      "stateMutability": "nonpayable",
      "type": "function"
    }
  ],
  "bytecode": "0x6080604052600a80546001600160a01b031990811673b1d8a6fd75e501aaacfcb1507afcbfcaade75d9317909155600b8054821673fddb9d0575da83ee0bf35f2198d08c2a0daf7716179055600c8054909116739d26262acc4dd72e4a251478f0619d21d159ab581790553480156200007757600080fd5b5060405162005ed438038062005ed48339810160408190526200009a916200068d565b60408051808201909152600c81526b697066733a2f2f697066732f60a01b6020820152620000c88162000172565b506004805460ff19169055620000de336200018b565b8151620000f390600790602085019062000558565b5080516200010990600890602084019062000558565b5062000117600033620001dd565b600a5462000131906000906001600160a01b0316620001dd565b600c546200016a907f4504b9dfd7400a1522f49a8b4a100552da9236849581fd59b7363eb48c6a474c906001600160a01b0316620001e9565b505062000895565b80516200018790600390602084019062000558565b5050565b600680546001600160a01b038381166001600160a01b0319831681179093556040519116919082907f8be0079c531659141344cd1fd0a4f28419497f9722a3daafe3b4186f6b6457e090600090a35050565b62000187828262000218565b600082815260208190526040902060010154620002078133620002b8565b62000213838362000218565b505050565b6000828152602081815260408083206001600160a01b038516845290915290205460ff1662000187576000828152602081815260408083206001600160a01b03851684529091529020805460ff19166001179055620002743390565b6001600160a01b0316816001600160a01b0316837f2f8788117e7eff1d82e926ec794901d17c78024a50270940304540a733656f0d60405160405180910390a45050565b6000828152602081815260408083206001600160a01b038516845290915290205460ff16620001875762000302816001600160a01b031660146200035c60201b6200293b1760201c565b620003188360206200293b6200035c821b17811c565b6040516020016200032b929190620006f4565b60408051601f198184030181529082905262461bcd60e51b825262000353916004016200076d565b60405180910390fd5b606060006200036d836002620007bd565b6200037a906002620007a2565b6001600160401b03811115620003a057634e487b7160e01b600052604160045260246000fd5b6040519080825280601f01601f191660200182016040528015620003cb576020820181803683370190505b509050600360fc1b81600081518110620003f557634e487b7160e01b600052603260045260246000fd5b60200101906001600160f81b031916908160001a905350600f60fb1b816001815181106200043357634e487b7160e01b600052603260045260246000fd5b60200101906001600160f81b031916908160001a905350600062000459846002620007bd565b62000466906001620007a2565b90505b600181111562000500576f181899199a1a9b1b9c1cb0b131b232b360811b85600f1660108110620004aa57634e487b7160e01b600052603260045260246000fd5b1a60f81b828281518110620004cf57634e487b7160e01b600052603260045260246000fd5b60200101906001600160f81b031916908160001a90535060049490941c93620004f88162000812565b905062000469565b508315620005515760405162461bcd60e51b815260206004820181905260248201527f537472696e67733a20686578206c656e67746820696e73756666696369656e74604482015260640162000353565b9392505050565b82805462000566906200082c565b90600052602060002090601f0160209004810192826200058a5760008555620005d5565b82601f10620005a557805160ff1916838001178555620005d5565b82800160010185558215620005d5579182015b82811115620005d5578251825591602001919060010190620005b8565b50620005e3929150620005e7565b5090565b5b80821115620005e35760008155600101620005e8565b600082601f8301126200060f578081fd5b81516001600160401b03808211156200062c576200062c6200087f565b604051601f8301601f19908116603f011681019082821181831017156200065757620006576200087f565b8160405283815286602085880101111562000670578485fd5b62000683846020830160208901620007df565b9695505050505050565b60008060408385031215620006a0578182fd5b82516001600160401b0380821115620006b7578384fd5b620006c586838701620005fe565b93506020850151915080821115620006db578283fd5b50620006ea85828601620005fe565b9150509250929050565b60007f416363657373436f6e74726f6c3a206163636f756e7420000000000000000000825283516200072e816017850160208801620007df565b7001034b99036b4b9b9b4b733903937b6329607d1b601791840191820152835162000761816028840160208801620007df565b01602801949350505050565b60006020825282518060208401526200078e816040850160208701620007df565b601f01601f19169190910160400192915050565b60008219821115620007b857620007b862000869565b500190565b6000816000190483118215151615620007da57620007da62000869565b500290565b60005b83811015620007fc578181015183820152602001620007e2565b838111156200080c576000848401525b50505050565b60008162000824576200082462000869565b506000190190565b600181811c908216806200084157607f821691505b602082108114156200086357634e487b7160e01b600052602260045260246000fd5b50919050565b634e487b7160e01b600052601160045260246000fd5b634e487b7160e01b600052604160045260246000fd5b61562f80620008a56000396000f3fe6080604052600436106103e35760003560e01c8063853828b611610208578063bd85b03911610118578063e985e9c5116100ab578063f242432a1161007a578063f242432a14610d0d578063f2fde38b14610d2d578063f5298aca14610d4d578063f721b16914610d6d578063f78f9c5b14610d8d576103e3565b8063e985e9c514610c64578063ebebf0ed14610cad578063edb45b6314610ccd578063f0b47def14610ced576103e3565b8063d3679152116100e7578063d367915214610bef578063d547741f14610c0f578063d81d0a1514610c2f578063e2b9e18614610c4f576103e3565b8063bd85b03914610b62578063c9e8b44b14610b8f578063caccd7f714610baf578063d091350514610bcf576103e3565b8063a217fddf1161019b578063aa3d92fb1161016a578063aa3d92fb14610a9d578063af17dea614610abd578063b3c39ab314610ad2578063b5825d9714610b15578063bbc93b6114610b35576103e3565b8063a217fddf14610a28578063a22cb46514610a3d578063a41ad3f014610a5d578063a696d75514610a7d576103e3565b806391d14854116101d757806391d14854146109b35780639200b4b4146109d3578063937c1bc7146109f357806395d89b4114610a13576103e3565b8063853828b61461092a5780638da5cb5b1461093f5780639012500c146109715780639103a0e014610991576103e3565b80632f2ff15d1161030357806350e5c8a61161029657806366b5075d1161026557806366b5075d146108ad5780636b20c454146108c0578063715018a6146108e05780637e0a6a88146108f55780638456cb5914610915576103e3565b806350e5c8a614610812578063522f68151461083257806353a6dcc2146108525780635c975abb14610895576103e3565b80634215b3ab116102d25780634215b3ab1461072557806346d6aada1461077d5780634e1273f4146107b65780634f558e79146107e3576103e3565b80632f2ff15d146106b057806336568abe146106d05780633b2fbc17146106f05780633f4ba83a14610710576103e3565b80630aa3e8e31161037b578063227413241161034a57806322741324146105f4578063248a9ca3146106145780632cc209c5146106445780632eb2c2d614610690576103e3565b80630aa3e8e3146105745780630e89341c1461059457806313af4035146105b45780631e0ca4f2146105d4576103e3565b806304f08992116103b757806304f08992146104a557806306fdde03146104de57806307550c671461050057806309a696f514610520576103e3565b8062fdd58e146103e857806301ffc9a71461041b57806302fe53051461044b5780630449bc831461046d575b600080fd5b3480156103f457600080fd5b506104086104033660046148c0565b610dd4565b6040519081526020015b60405180910390f35b34801561042757600080fd5b5061043b610436366004614acc565b610e6d565b6040519015158152602001610412565b34801561045757600080fd5b5061046b610466366004614b04565b610e80565b005b34801561047957600080fd5b5061048d610488366004614c02565b610eb6565b6040516001600160401b039091168152602001610412565b3480156104b157600080fd5b506104086104c0366004614be8565b6001600160401b03166000908152600d602052604090206001015490565b3480156104ea57600080fd5b506104f3610f35565b6040516104129190615062565b34801561050c57600080fd5b5061046b61051b36600461460d565b610fc8565b34801561052c57600080fd5b5061043b61053b366004614be8565b6001600160401b0381166000908152600d60209081526040808320546005909252822054600160501b90910463ffffffff161192915050565b34801561058057600080fd5b5061046b61058f366004614c4a565b611007565b3480156105a057600080fd5b506104f36105af366004614a90565b6110ee565b3480156105c057600080fd5b5061046b6105cf36600461460d565b61118b565b3480156105e057600080fd5b5061046b6105ef36600461494a565b6111be565b34801561060057600080fd5b5061046b61060f366004614a51565b611250565b34801561062057600080fd5b5061040861062f366004614a90565b60009081526020819052604090206001015490565b34801561065057600080fd5b5061043b61065f366004614be8565b6001600160401b03166000908152600d6020908152604080832033845260040190915290205460ff16151560011490565b34801561069c57600080fd5b5061046b6106ab36600461468c565b611327565b3480156106bc57600080fd5b5061046b6106cb366004614aa8565b6113be565b3480156106dc57600080fd5b5061046b6106eb366004614aa8565b6113e5565b3480156106fc57600080fd5b5061043b61070b366004614c02565b611463565b34801561071c57600080fd5b5061046b6114e9565b34801561073157600080fd5b50610768610740366004614be8565b6001600160401b03166000908152600d6020526040902054600160901b900463ffffffff1690565b60405163ffffffff9091168152602001610412565b34801561078957600080fd5b5061043b610798366004614be8565b6001600160401b03166000908152600d602052604090205460ff1690565b3480156107c257600080fd5b506107d66107d1366004614985565b61151d565b6040516104129190614fea565b3480156107ef57600080fd5b5061043b6107fe366004614a90565b600090815260056020526040902054151590565b34801561081e57600080fd5b5061046b61082d36600461460d565b61167e565b34801561083e57600080fd5b5061046b61084d366004614629565b6116bd565b34801561085e57600080fd5b5061076861086d366004614be8565b6001600160401b03166000908152600d6020526040902054600160701b900463ffffffff1690565b3480156108a157600080fd5b5060045460ff1661043b565b61046b6108bb366004614d94565b61171a565b3480156108cc57600080fd5b5061046b6108db36600461481a565b6119cc565b3480156108ec57600080fd5b5061046b611a0f565b34801561090157600080fd5b5061048d610910366004614be8565b611a43565b34801561092157600080fd5b5061046b611a8d565b34801561093657600080fd5b5061046b611abf565b34801561094b57600080fd5b506006546001600160a01b03165b6040516001600160a01b039091168152602001610412565b34801561097d57600080fd5b5061046b61098c366004614be8565b611bbc565b34801561099d57600080fd5b506104086000805160206155da83398151915281565b3480156109bf57600080fd5b5061043b6109ce366004614aa8565b611c22565b3480156109df57600080fd5b5061046b6109ee366004614c9a565b611c4b565b3480156109ff57600080fd5b5061046b610a0e366004614a51565b611cc1565b348015610a1f57600080fd5b506104f3611d98565b348015610a3457600080fd5b50610408600081565b348015610a4957600080fd5b5061046b610a5836600461488c565b611da7565b348015610a6957600080fd5b5061046b610a7836600461494a565b611db2565b348015610a8957600080fd5b5061046b610a98366004614c1d565b611ed8565b348015610aa957600080fd5b50600b54610959906001600160a01b031681565b348015610ac957600080fd5b506104f3611f68565b348015610ade57600080fd5b50610768610aed366004614be8565b6001600160401b03166000908152600d6020526040902054600160501b900463ffffffff1690565b348015610b2157600080fd5b5061046b610b30366004614b3e565b611ff6565b348015610b4157600080fd5b50610b55610b50366004614be8565b6121a7565b604051610412919061502b565b348015610b6e57600080fd5b50610408610b7d366004614a90565b60009081526005602052604090205490565b348015610b9b57600080fd5b5061046b610baa366004614cb5565b6121f4565b348015610bbb57600080fd5b50600c54610959906001600160a01b031681565b348015610bdb57600080fd5b50600a54610959906001600160a01b031681565b348015610bfb57600080fd5b5061046b610c0a366004614be8565b6124d4565b348015610c1b57600080fd5b5061046b610c2a366004614aa8565b61253d565b348015610c3b57600080fd5b5061046b610c4a36600461479b565b612563565b348015610c5b57600080fd5b506104f3612606565b348015610c7057600080fd5b5061043b610c7f366004614654565b6001600160a01b03918216600090815260026020908152604080832093909416825291909152205460ff1690565b348015610cb957600080fd5b5061046b610cc8366004614c4a565b612613565b348015610cd957600080fd5b5061043b610ce8366004614be8565b612710565b348015610cf957600080fd5b50610959610d08366004614be8565b61275b565b348015610d1957600080fd5b5061046b610d28366004614735565b6127ca565b348015610d3957600080fd5b5061046b610d4836600461460d565b61280f565b348015610d5957600080fd5b5061046b610d683660046148d2565b6128a7565b348015610d7957600080fd5b5061046b610d88366004614906565b6128ea565b348015610d9957600080fd5b5061048d610da8366004614be8565b6001600160401b039081166000908152600d602090815260408083203384526005019091529020541690565b60006001600160a01b038316610e455760405162461bcd60e51b815260206004820152602b60248201527f455243313135353a2062616c616e636520717565727920666f7220746865207a60448201526a65726f206164647265737360a81b60648201526084015b60405180910390fd5b5060009081526001602090815260408083206001600160a01b03949094168352929052205490565b6000610e7882612b23565b90505b919050565b6006546001600160a01b03163314610eaa5760405162461bcd60e51b8152600401610e3c9061524c565b610eb381612b63565b50565b6000610ed06000805160206155da83398151915233611c22565b80610ee15750610ee1600033611c22565b610efd5760405162461bcd60e51b8152600401610e3c906150bd565b506001600160401b039182166000908152600d602090815260408083206001600160a01b039490941683526005909301905220541690565b606060078054610f4490615431565b80601f0160208091040260200160405190810160405280929190818152602001828054610f7090615431565b8015610fbd5780601f10610f9257610100808354040283529160200191610fbd565b820191906000526020600020905b815481529060010190602001808311610fa057829003601f168201915b505050505090505b90565b610fd3600033611c22565b610fef5760405162461bcd60e51b8152600401610e3c906150bd565b610eb36000805160206155da8339815191528261253d565b61101f6000805160206155da83398151915233611c22565b806110305750611030600033611c22565b61104c5760405162461bcd60e51b8152600401610e3c906150bd565b60005b6001600160401b0381168211156110e8576001600160401b038085166000908152600d60205260408120600401918590859085168181106110a057634e487b7160e01b600052603260045260246000fd5b90506020020160208101906110b5919061460d565b6001600160a01b031681526020810191909152604001600020805460ff19169055806110e0816154b3565b91505061104f565b50505050565b6000818152600560205260408120546060911061113f5760405162461bcd60e51b815260206004820152600f60248201526e115c9c8e88125b9d985b1a59081251608a1b6044820152606401610e3c565b61114882612b76565b6001600160401b0383166000908152600d6020908152604091829020915161117593926002019101614e23565b6040516020818303038152906040529050919050565b6006546001600160a01b031633146111b55760405162461bcd60e51b8152600401610e3c9061524c565b610eb38161280f565b6001600160401b0382166000908152600d60205260409020600301546001600160a01b031633146112315760405162461bcd60e51b815260206004820152601c60248201527f4572723a204e6f742072656465656d61626c6520636f6e7472616374000000006044820152606401610e3c565b61124b83836001600160401b03168363ffffffff16612c0a565b505050565b6112686000805160206155da83398151915233611c22565b806112795750611279600033611c22565b6112955760405162461bcd60e51b8152600401610e3c906150bd565b60005b6001600160401b03811682111561124b576001600d60008585856001600160401b03168181106112d857634e487b7160e01b600052603260045260246000fd5b90506020020160208101906112ed9190614be8565b6001600160401b031681526020810191909152604001600020805460ff19169115159190911790558061131f816154b3565b915050611298565b6001600160a01b03851633148061134357506113438533610c7f565b6113aa5760405162461bcd60e51b815260206004820152603260248201527f455243313135353a207472616e736665722063616c6c6572206973206e6f74206044820152711bdddb995c881b9bdc88185c1c1c9bdd995960721b6064820152608401610e3c565b6113b78585858585612c15565b5050505050565b6000828152602081905260409020600101546113db81335b612dde565b61124b8383612e42565b6001600160a01b03811633146114555760405162461bcd60e51b815260206004820152602f60248201527f416363657373436f6e74726f6c3a2063616e206f6e6c792072656e6f756e636560448201526e103937b632b9903337b91039b2b63360891b6064820152608401610e3c565b61145f8282612ec6565b5050565b600061147d6000805160206155da83398151915233611c22565b8061148e575061148e600033611c22565b6114aa5760405162461bcd60e51b8152600401610e3c906150bd565b506001600160401b0382166000908152600d602090815260408083206001600160a01b038516845260040190915290205460ff16151560011492915050565b6006546001600160a01b031633146115135760405162461bcd60e51b8152600401610e3c9061524c565b61151b612f2b565b565b606081518351146115825760405162461bcd60e51b815260206004820152602960248201527f455243313135353a206163636f756e747320616e6420696473206c656e677468604482015268040dad2e6dac2e8c6d60bb1b6064820152608401610e3c565b600083516001600160401b038111156115ab57634e487b7160e01b600052604160045260246000fd5b6040519080825280602002602001820160405280156115d4578160200160208202803683370190505b50905060005b84518110156116765761163b85828151811061160657634e487b7160e01b600052603260045260246000fd5b602002602001015185838151811061162e57634e487b7160e01b600052603260045260246000fd5b6020026020010151610dd4565b82828151811061165b57634e487b7160e01b600052603260045260246000fd5b602090810291909101015261166f81615498565b90506115da565b509392505050565b611689600033611c22565b6116a55760405162461bcd60e51b8152600401610e3c906150bd565b610eb36000805160206155da833981519152826113be565b6116c8600033611c22565b6116e45760405162461bcd60e51b8152600401610e3c906150bd565b6040516001600160a01b0383169082156108fc029083906000818181858888f1935050505015801561124b573d6000803e3d6000fd5b611725818333612fbe565b6001600160401b0382166000908152600d6020908152604080832033845260040190915290205460ff161515600114611836576001600160401b0382166000908152600d60205260408120600101546117849063ffffffff8416615390565b61178e90346153af565b9050801561183057604051600090339083908381818185875af1925050503d80600081146117d8576040519150601f19603f3d011682016040523d82523d6000602084013e6117dd565b606091505b505090508061182e5760405162461bcd60e51b815260206004820181905260248201527f4572723a2043616e27742072657475726e20657863657373207061796d656e746044820152606401610e3c565b505b506118d6565b34156118d657604051600090339034908381818185875af1925050503d806000811461187e576040519150601f19603f3d011682016040523d82523d6000602084013e611883565b606091505b50509050806118d45760405162461bcd60e51b815260206004820181905260248201527f4572723a2043616e27742072657475726e20657863657373207061796d656e746044820152606401610e3c565b505b6001600160401b038281166000908152600d60209081526040808320338452600481018352818420805460ff191690556005019091529020546119219163ffffffff84169116615345565b6001600160401b038381166000818152600d602090815260408083203380855260059091018352818420805467ffffffffffffffff191697909616969096179094558351908101909352825261197f929163ffffffff85169061342a565b604080516001600160401b038416815263ffffffff8316602082015233917ffb83e19617811aacbee5350ea3d0ee5ac23c5a36a5529ab1363d8e6efe0fe934910160405180910390a25050565b6001600160a01b0383163314806119e857506119e88333610c7f565b611a045760405162461bcd60e51b8152600401610e3c90615131565b61124b838383613436565b6006546001600160a01b03163314611a395760405162461bcd60e51b8152600401610e3c9061524c565b61151b6000613441565b6001600160401b038181166000818152600d6020818152604080842033855260058101835290842054948452919052549092610e78921690600160701b900463ffffffff166153c6565b6006546001600160a01b03163314611ab75760405162461bcd60e51b8152600401610e3c9061524c565b61151b613493565b611aca600033611c22565b611ae65760405162461bcd60e51b8152600401610e3c906150bd565b4780611b345760405162461bcd60e51b815260206004820152601a60248201527f4572723a20436f6e74726163742062616c616e636520697320300000000000006044820152606401610e3c565b600a546001600160a01b03166108fc6064611b50846032615390565b611b5a9190615370565b6040518115909202916000818181858888f19350505050158015611b82573d6000803e3d6000fd5b50600b546040516001600160a01b03909116904780156108fc02916000818181858888f1935050505015801561145f573d6000803e3d6000fd5b611bd46000805160206155da83398151915233611c22565b80611be55750611be5600033611c22565b611c015760405162461bcd60e51b8152600401610e3c906150bd565b6001600160401b03166000908152600d60205260409020805460ff19169055565b6000918252602082815260408084206001600160a01b0393909316845291905290205460ff1690565b611c636000805160206155da83398151915233611c22565b80611c745750611c74600033611c22565b611c905760405162461bcd60e51b8152600401610e3c906150bd565b6001600160401b039091166000908152600d6020526040902080549115156101000261ff0019909216919091179055565b611cd96000805160206155da83398151915233611c22565b80611cea5750611cea600033611c22565b611d065760405162461bcd60e51b8152600401610e3c906150bd565b60005b6001600160401b03811682111561124b576000600d60008585856001600160401b0316818110611d4957634e487b7160e01b600052603260045260246000fd5b9050602002016020810190611d5e9190614be8565b6001600160401b031681526020810191909152604001600020805460ff191691151591909117905580611d90816154b3565b915050611d09565b606060088054610f4490615431565b61145f33838361350e565b6001600160401b0382166000908152600d60205260409020600301546001600160a01b03163314611e255760405162461bcd60e51b815260206004820152601c60248201527f4572723a204e6f742072656465656d61626c6520636f6e7472616374000000006044820152606401610e3c565b611e2f81836135ef565b6001600160401b038083166000908152600d602090815260408083206001600160a01b0388168452600501909152902054611e729163ffffffff84169116615345565b6001600160401b038381166000818152600d602090815260408083206001600160a01b038a1684526005018252808320805467ffffffffffffffff19169690951695909517909355835192830190935291815261124b91859163ffffffff85169061342a565b611ef06000805160206155da83398151915233611c22565b80611f015750611f01600033611c22565b611f1d5760405162461bcd60e51b8152600401610e3c906150bd565b6001600160401b039283166000908152600d602090815260408083206001600160a01b039590951683526005909401905291909120805467ffffffffffffffff191691909216179055565b60088054611f7590615431565b80601f0160208091040260200160405190810160405280929190818152602001828054611fa190615431565b8015611fee5780601f10611fc357610100808354040283529160200191611fee565b820191906000526020600020905b815481529060010190602001808311611fd157829003601f168201915b505050505081565b61200e6000805160206155da83398151915233611c22565b8061201f575061201f600033611c22565b61203b5760405162461bcd60e51b8152600401610e3c906150bd565b8663ffffffff168863ffffffff1611156120975760405162461bcd60e51b815260206004820152601e60248201527f4572723a205374617274206461746520616674657220656e64206461746500006044820152606401610e3c565b6000600d60006120a660095490565b6001600160401b031681526020808201929092526040016000208054600182018a905563ffffffff898116600160501b0263ffffffff60501b198d8316600160301b02166dffffffffffffffff00000000000019928f16620100000265ffffffffffff19909416939093176101001791909116919091171781558651909250612137916002840191908801906143f0565b50805467ffffffffffffffff60701b1916600160901b63ffffffff8481169190910263ffffffff60701b191691909117600160701b918516919091021781556003810180546001600160a01b0319166001600160a01b038616179055600980546001019055505050505050505050565b6121af614474565b6001600160401b03919091166000818152600d6020818152604083205463ffffffff6201000082048116875294909352908152600160301b9091049091169082015290565b61220c6000805160206155da83398151915233611c22565b8061221d575061221d600033611c22565b6122395760405162461bcd60e51b8152600401610e3c906150bd565b8663ffffffff168863ffffffff1611156122955760405162461bcd60e51b815260206004820152601e60248201527f4572723a205374617274206461746520616674657220656e64206461746500006044820152606401610e3c565b89600d60008d6001600160401b03166001600160401b0316815260200190815260200160002060000160006101000a81548160ff02191690831515021790555088600d60008d6001600160401b03166001600160401b0316815260200190815260200160002060000160016101000a81548160ff02191690831515021790555087600d60008d6001600160401b03166001600160401b0316815260200190815260200160002060000160026101000a81548163ffffffff021916908363ffffffff16021790555086600d60008d6001600160401b03166001600160401b0316815260200190815260200160002060000160066101000a81548163ffffffff021916908363ffffffff16021790555085600d60008d6001600160401b03166001600160401b031681526020019081526020016000206001018190555084600d60008d6001600160401b03166001600160401b03168152602001908152602001600020600001600a6101000a81548163ffffffff021916908363ffffffff16021790555083600d60008d6001600160401b03166001600160401b0316815260200190815260200160002060020190805190602001906124539291906143f0565b506001600160401b039a909a166000908152600d602052604090206003810180546001600160a01b0319166001600160a01b039490941693909317909255815467ffffffffffffffff60701b1916600160701b63ffffffff9283160263ffffffff60901b191617600160901b91909a16029890981790975550505050505050565b6124ec6000805160206155da83398151915233611c22565b806124fd57506124fd600033611c22565b6125195760405162461bcd60e51b8152600401610e3c906150bd565b6001600160401b03166000908152600d60205260409020805460ff19166001179055565b60008281526020819052604090206001015461255981336113d6565b61124b8383612ec6565b61256e600033611c22565b61258a5760405162461bcd60e51b8152600401610e3c906150bd565b6113b78583838080602002602001604051908101604052809392919081815260200183836020028082843760009201919091525050604080516020808b0282810182019093528a82529093508a92508991829185019084908082843760009201829052506040805160208101909152908152925061385a915050565b60078054611f7590615431565b61262b6000805160206155da83398151915233611c22565b8061263c575061263c600033611c22565b6126585760405162461bcd60e51b8152600401610e3c906150bd565b60005b6001600160401b0381168211156110e8576001600d6000866001600160401b03166001600160401b0316815260200190815260200160002060040160008585856001600160401b03168181106126c157634e487b7160e01b600052603260045260246000fd5b90506020020160208101906126d6919061460d565b6001600160a01b031681526020810191909152604001600020805460ff191691151591909117905580612708816154b3565b91505061265b565b600061271b33613866565b6127375760405162461bcd60e51b8152600401610e3c906150bd565b506001600160401b03166000908152600d6020526040902054610100900460ff1690565b60006127756000805160206155da83398151915233611c22565b806127865750612786600033611c22565b6127a25760405162461bcd60e51b8152600401610e3c906150bd565b506001600160401b03166000908152600d60205260409020600301546001600160a01b031690565b6001600160a01b0385163314806127e657506127e68533610c7f565b6128025760405162461bcd60e51b8152600401610e3c90615131565b6113b78585858585613891565b6006546001600160a01b031633146128395760405162461bcd60e51b8152600401610e3c9061524c565b6001600160a01b03811661289e5760405162461bcd60e51b815260206004820152602660248201527f4f776e61626c653a206e6577206f776e657220697320746865207a65726f206160448201526564647265737360d01b6064820152608401610e3c565b610eb381613441565b6001600160a01b0383163314806128c357506128c38333610c7f565b6128df5760405162461bcd60e51b8152600401610e3c90615131565b61124b838383612c0a565b6128f5600033611c22565b6129115760405162461bcd60e51b8152600401610e3c906150bd565b61124b83826001600160401b03168463ffffffff166040518060200160405280600081525061342a565b6060600061294a836002615390565b61295590600261532d565b6001600160401b0381111561297a57634e487b7160e01b600052604160045260246000fd5b6040519080825280601f01601f1916602001820160405280156129a4576020820181803683370190505b509050600360fc1b816000815181106129cd57634e487b7160e01b600052603260045260246000fd5b60200101906001600160f81b031916908160001a905350600f60fb1b81600181518110612a0a57634e487b7160e01b600052603260045260246000fd5b60200101906001600160f81b031916908160001a9053506000612a2e846002615390565b612a3990600161532d565b90505b6001811115612acd576f181899199a1a9b1b9c1cb0b131b232b360811b85600f1660108110612a7b57634e487b7160e01b600052603260045260246000fd5b1a60f81b828281518110612a9f57634e487b7160e01b600052603260045260246000fd5b60200101906001600160f81b031916908160001a90535060049490941c93612ac68161541a565b9050612a3c565b508315612b1c5760405162461bcd60e51b815260206004820181905260248201527f537472696e67733a20686578206c656e67746820696e73756666696369656e746044820152606401610e3c565b9392505050565b60006001600160e01b03198216636cdb3d1360e11b1480612b5457506001600160e01b031982166303a24d0760e21b145b80610e785750610e78826139c1565b805161145f9060039060208401906143f0565b606060038054612b8590615431565b80601f0160208091040260200160405190810160405280929190818152602001828054612bb190615431565b8015612bfe5780601f10612bd357610100808354040283529160200191612bfe565b820191906000526020600020905b815481529060010190602001808311612be157829003601f168201915b50505050509050919050565b61124b8383836139f6565b8151835114612c365760405162461bcd60e51b8152600401610e3c90615281565b6001600160a01b038416612c5c5760405162461bcd60e51b8152600401610e3c9061517a565b33612c6b818787878787613afb565b60005b8451811015612d70576000858281518110612c9957634e487b7160e01b600052603260045260246000fd5b602002602001015190506000858381518110612cc557634e487b7160e01b600052603260045260246000fd5b60209081029190910181015160008481526001835260408082206001600160a01b038e168352909352919091205490915081811015612d165760405162461bcd60e51b8152600401610e3c90615202565b60008381526001602090815260408083206001600160a01b038e8116855292528083208585039055908b16825281208054849290612d5590849061532d565b9250508190555050505080612d6990615498565b9050612c6e565b50846001600160a01b0316866001600160a01b0316826001600160a01b03167f4a39dc06d4c0dbc64b70af90fd698a233a518aa5d07e595d983b8c0526c8f7fb8787604051612dc0929190614ffd565b60405180910390a4612dd6818787878787613b09565b505050505050565b612de88282611c22565b61145f57612e00816001600160a01b0316601461293b565b612e0b83602061293b565b604051602001612e1c929190614ed2565b60408051601f198184030181529082905262461bcd60e51b8252610e3c91600401615062565b612e4c8282611c22565b61145f576000828152602081815260408083206001600160a01b03851684529091529020805460ff19166001179055612e823390565b6001600160a01b0316816001600160a01b0316837f2f8788117e7eff1d82e926ec794901d17c78024a50270940304540a733656f0d60405160405180910390a45050565b612ed08282611c22565b1561145f576000828152602081815260408083206001600160a01b0385168085529252808320805460ff1916905551339285917ff6391f5c32d9c69d2a47ea670b442974b53935d1edc7fd64eb21e047a839171b9190a45050565b60045460ff16612f745760405162461bcd60e51b815260206004820152601460248201527314185d5cd8589b194e881b9bdd081c185d5cd95960621b6044820152606401610e3c565b6004805460ff191690557f5db9ee0a495bf2e6ff9c91a7834c1ba4fdd244a5e8aa4e537bd38aeae4b073aa335b6040516001600160a01b03909116815260200160405180910390a1565b6001600160401b0382166000908152600d602052604090205460ff1661301c5760405162461bcd60e51b8152602060048201526013602482015272115c9c8e8814d85b19481a5cc818db1bdcd959606a1b6044820152606401610e3c565b60045460ff16156130695760405162461bcd60e51b8152602060048201526017602482015276115c9c8e8810db185a5b5a5b99c81a5cc81c185d5cd959604a1b6044820152606401610e3c565b6001600160401b0382166000908152600d6020526040902054600160501b900463ffffffff166130db5760405162461bcd60e51b815260206004820152601d60248201527f4572723a204d696e74207061737320646f6573206e6f742065786973740000006044820152606401610e3c565b6001600160401b0382166000908152600d602052604090205462010000900463ffffffff1615158061313157506001600160401b0382166000908152600d6020526040902054600160301b900463ffffffff1615155b156131cc576001600160401b0382166000908152600d602052604090205462010000900463ffffffff164211801561318d57506001600160401b0382166000908152600d6020526040902054600160301b900463ffffffff1642105b6131cc5760405162461bcd60e51b815260206004820152601060248201526f4572723a204f7574206f662074696d6560801b6044820152606401610e3c565b6001600160401b0382166000908152600d602090815260408083206001600160a01b038516845260040190915290205460ff1661327e576001600160401b0382166000908152600d602052604090206001015461322f9063ffffffff8516615390565b34101561327e5760405162461bcd60e51b815260206004820152601a60248201527f4572723a2045746865722076616c756520696e636f72726563740000000000006044820152606401610e3c565b6001600160401b038083166000908152600d60209081526040808320805433855260059091019092529091205463ffffffff600160701b9092048216926132c89287169116615345565b6001600160401b0316111561331f5760405162461bcd60e51b815260206004820152601b60248201527f4572723a20457863656564696e67206d6178207175616e7469747900000000006044820152606401610e3c565b6001600160401b0382166000908152600d6020526040902054610100900460ff161561339a5761334e82613c74565b61339a5760405162461bcd60e51b815260206004820152601b60248201527f4572723a205265737472696374656420746f206f6e65207061737300000000006044820152606401610e3c565b6001600160401b0382166000908152600d602090815260408083205460059092529091205463ffffffff600160501b9092048216918516906133dc919061532d565b111561124b5760405162461bcd60e51b815260206004820152601f60248201527f4572723a20507572636861736520657863656564206d617820706173736573006044820152606401610e3c565b6110e884848484613d26565b61124b838383613def565b600680546001600160a01b038381166001600160a01b0319831681179093556040519116919082907f8be0079c531659141344cd1fd0a4f28419497f9722a3daafe3b4186f6b6457e090600090a35050565b60045460ff16156134d95760405162461bcd60e51b815260206004820152601060248201526f14185d5cd8589b194e881c185d5cd95960821b6044820152606401610e3c565b6004805460ff191660011790557f62e78cea01bee320cd4e420270b5ea74000d11b0c9f74754ebdbfc544b05a258612fa13390565b816001600160a01b0316836001600160a01b031614156135825760405162461bcd60e51b815260206004820152602960248201527f455243313135353a2073657474696e6720617070726f76616c20737461747573604482015268103337b91039b2b63360b91b6064820152608401610e3c565b6001600160a01b03838116600081815260026020908152604080832094871680845294825291829020805460ff191686151590811790915591519182527f17307eab39ab6107e8899845ad3d59bd9653f200f220920489ca2b5937696c31910160405180910390a3505050565b60045460ff161561363c5760405162461bcd60e51b8152602060048201526017602482015276115c9c8e8810db185a5b5a5b99c81a5cc81c185d5cd959604a1b6044820152606401610e3c565b6001600160401b0381166000908152600d6020526040902054600160501b900463ffffffff166136ae5760405162461bcd60e51b815260206004820152601d60248201527f4572723a204d696e74207061737320646f6573206e6f742065786973740000006044820152606401610e3c565b6001600160401b038082166000908152600d60209081526040808320805433855260059091019092529091205463ffffffff600160701b9092048216926136f89286169116615345565b6001600160401b0316111561374f5760405162461bcd60e51b815260206004820152601b60248201527f4572723a20457863656564696e67206d6178207175616e7469747900000000006044820152606401610e3c565b6001600160401b0381166000908152600d6020526040902054610100900460ff16156137ca5761377e81613c74565b6137ca5760405162461bcd60e51b815260206004820152601b60248201527f4572723a205265737472696374656420746f206f6e65207061737300000000006044820152606401610e3c565b6001600160401b0381166000908152600d602090815260408083205460059092529091205463ffffffff600160501b90920482169184169061380c919061532d565b111561145f5760405162461bcd60e51b815260206004820152601f60248201527f4572723a20507572636861736520657863656564206d617820706173736573006044820152606401610e3c565b6110e884848484613f9c565b60006138806000805160206155da83398151915283611c22565b80610e785750610e78600083611c22565b6001600160a01b0384166138b75760405162461bcd60e51b8152600401610e3c9061517a565b336138d68187876138c788614113565b6138d088614113565b87613afb565b60008481526001602090815260408083206001600160a01b038a168452909152902054838110156139195760405162461bcd60e51b8152600401610e3c90615202565b60008581526001602090815260408083206001600160a01b038b811685529252808320878503905590881682528120805486929061395890849061532d565b909155505060408051868152602081018690526001600160a01b03808916928a821692918616917fc3d58168c5ae7397731d063d5bbf3d657854427343f4c083240f7aacaa2d0f62910160405180910390a46139b882888888888861416c565b50505050505050565b60006001600160e01b03198216637965db0b60e01b1480610e7857506301ffc9a760e01b6001600160e01b0319831614610e78565b6001600160a01b038316613a1c5760405162461bcd60e51b8152600401610e3c906151bf565b33613a4b81856000613a2d87614113565b613a3687614113565b60405180602001604052806000815250613afb565b60008381526001602090815260408083206001600160a01b038816845290915290205482811015613a8e5760405162461bcd60e51b8152600401610e3c906150ed565b60008481526001602090815260408083206001600160a01b03898116808652918452828520888703905582518981529384018890529092908616917fc3d58168c5ae7397731d063d5bbf3d657854427343f4c083240f7aacaa2d0f62910160405180910390a45050505050565b612dd6868686868686614236565b6001600160a01b0384163b15612dd65760405163bc197c8160e01b81526001600160a01b0385169063bc197c8190613b4d9089908990889088908890600401614f47565b602060405180830381600087803b158015613b6757600080fd5b505af1925050508015613b97575060408051601f3d908101601f19168201909252613b9491810190614ae8565b60015b613c4457613ba3615506565b806308c379a01415613bdd5750613bb861551d565b80613bc35750613bdf565b8060405162461bcd60e51b8152600401610e3c9190615062565b505b60405162461bcd60e51b815260206004820152603460248201527f455243313135353a207472616e7366657220746f206e6f6e20455243313135356044820152732932b1b2b4bb32b91034b6b83632b6b2b73a32b960611b6064820152608401610e3c565b6001600160e01b0319811663bc197c8160e01b146139b85760405162461bcd60e51b8152600401610e3c90615075565b6000805b600954816001600160401b031611613d1d576001600160401b0381166000908152600d6020526040902054610100900460ff168015613cde57506001600160401b038082166000908152600d602090815260408083203384526005019091529020541615155b8015613cfc5750826001600160401b0316816001600160401b031614155b15613d0b576000915050610e7b565b80613d15816154b3565b915050613c78565b50600192915050565b6001600160a01b038416613d4c5760405162461bcd60e51b8152600401610e3c906152c9565b33613d5d816000876138c788614113565b60008481526001602090815260408083206001600160a01b038916845290915281208054859290613d8f90849061532d565b909155505060408051858152602081018590526001600160a01b0380881692600092918516917fc3d58168c5ae7397731d063d5bbf3d657854427343f4c083240f7aacaa2d0f62910160405180910390a46113b78160008787878761416c565b6001600160a01b038316613e155760405162461bcd60e51b8152600401610e3c906151bf565b8051825114613e365760405162461bcd60e51b8152600401610e3c90615281565b6000339050613e5981856000868660405180602001604052806000815250613afb565b60005b8351811015613f3d576000848281518110613e8757634e487b7160e01b600052603260045260246000fd5b602002602001015190506000848381518110613eb357634e487b7160e01b600052603260045260246000fd5b60209081029190910181015160008481526001835260408082206001600160a01b038c168352909352919091205490915081811015613f045760405162461bcd60e51b8152600401610e3c906150ed565b60009283526001602090815260408085206001600160a01b038b1686529091529092209103905580613f3581615498565b915050613e5c565b5060006001600160a01b0316846001600160a01b0316826001600160a01b03167f4a39dc06d4c0dbc64b70af90fd698a233a518aa5d07e595d983b8c0526c8f7fb8686604051613f8e929190614ffd565b60405180910390a450505050565b6001600160a01b038416613fc25760405162461bcd60e51b8152600401610e3c906152c9565b8151835114613fe35760405162461bcd60e51b8152600401610e3c90615281565b33613ff381600087878787613afb565b60005b84518110156140ab5783818151811061401f57634e487b7160e01b600052603260045260246000fd5b60200260200101516001600087848151811061404b57634e487b7160e01b600052603260045260246000fd5b602002602001015181526020019081526020016000206000886001600160a01b03166001600160a01b031681526020019081526020016000206000828254614093919061532d565b909155508190506140a381615498565b915050613ff6565b50846001600160a01b031660006001600160a01b0316826001600160a01b03167f4a39dc06d4c0dbc64b70af90fd698a233a518aa5d07e595d983b8c0526c8f7fb87876040516140fc929190614ffd565b60405180910390a46113b781600087878787613b09565b6040805160018082528183019092526060916000919060208083019080368337019050509050828160008151811061415b57634e487b7160e01b600052603260045260246000fd5b602090810291909101015292915050565b6001600160a01b0384163b15612dd65760405163f23a6e6160e01b81526001600160a01b0385169063f23a6e61906141b09089908990889088908890600401614fa5565b602060405180830381600087803b1580156141ca57600080fd5b505af19250505080156141fa575060408051601f3d908101601f191682019092526141f791810190614ae8565b60015b61420657613ba3615506565b6001600160e01b0319811663f23a6e6160e01b146139b85760405162461bcd60e51b8152600401610e3c90615075565b614244868686868686614388565b6001600160a01b0385166142e75760005b83518110156142e55782818151811061427e57634e487b7160e01b600052603260045260246000fd5b6020026020010151600560008684815181106142aa57634e487b7160e01b600052603260045260246000fd5b6020026020010151815260200190815260200160002060008282546142cf919061532d565b909155506142de905081615498565b9050614255565b505b6001600160a01b038416612dd65760005b83518110156139b85782818151811061432157634e487b7160e01b600052603260045260246000fd5b60200260200101516005600086848151811061434d57634e487b7160e01b600052603260045260246000fd5b60200260200101518152602001908152602001600020600082825461437291906153af565b90915550614381905081615498565b90506142f8565b60045460ff1615612dd65760405162461bcd60e51b815260206004820152602c60248201527f455243313135355061757361626c653a20746f6b656e207472616e736665722060448201526b1dda1a5b19481c185d5cd95960a21b6064820152608401610e3c565b8280546143fc90615431565b90600052602060002090601f01602090048101928261441e5760008555614464565b82601f1061443757805160ff1916838001178555614464565b82800160010185558215614464579182015b82811115614464578251825591602001919060010190614449565b50614470929150614492565b5090565b60405180604001604052806002906020820280368337509192915050565b5b808211156144705760008155600101614493565b60008083601f8401126144b8578182fd5b5081356001600160401b038111156144ce578182fd5b6020830191508360208260051b85010111156144e957600080fd5b9250929050565b600082601f830112614500578081fd5b8135602061450d8261530a565b60405161451a828261546c565b8381528281019150858301600585901b87018401881015614539578586fd5b855b858110156145575781358452928401929084019060010161453b565b5090979650505050505050565b80358015158114610e7b57600080fd5b600082601f830112614584578081fd5b81356001600160401b0381111561459d5761459d6154f0565b6040516145b4601f8301601f19166020018261546c565b8181528460208386010111156145c8578283fd5b816020850160208301379081016020019190915292915050565b803563ffffffff81168114610e7b57600080fd5b80356001600160401b0381168114610e7b57600080fd5b60006020828403121561461e578081fd5b8135612b1c816155ae565b6000806040838503121561463b578081fd5b8235614646816155ae565b946020939093013593505050565b60008060408385031215614666578182fd5b8235614671816155ae565b91506020830135614681816155ae565b809150509250929050565b600080600080600060a086880312156146a3578081fd5b85356146ae816155ae565b945060208601356146be816155ae565b935060408601356001600160401b03808211156146d9578283fd5b6146e589838a016144f0565b945060608801359150808211156146fa578283fd5b61470689838a016144f0565b9350608088013591508082111561471b578283fd5b5061472888828901614574565b9150509295509295909350565b600080600080600060a0868803121561474c578081fd5b8535614757816155ae565b94506020860135614767816155ae565b9350604086013592506060860135915060808601356001600160401b0381111561478f578182fd5b61472888828901614574565b6000806000806000606086880312156147b2578283fd5b85356147bd816155ae565b945060208601356001600160401b03808211156147d8578485fd5b6147e489838a016144a7565b909650945060408801359150808211156147fc578283fd5b50614809888289016144a7565b969995985093965092949392505050565b60008060006060848603121561482e578081fd5b8335614839816155ae565b925060208401356001600160401b0380821115614854578283fd5b614860878388016144f0565b93506040860135915080821115614875578283fd5b50614882868287016144f0565b9150509250925092565b6000806040838503121561489e578182fd5b82356148a9816155ae565b91506148b760208401614564565b90509250929050565b6000806040838503121561463b578182fd5b6000806000606084860312156148e6578081fd5b83356148f1816155ae565b95602085013595506040909401359392505050565b60008060006060848603121561491a578081fd5b8335614925816155ae565b9250614933602085016145e2565b9150614941604085016145f6565b90509250925092565b60008060006060848603121561495e578081fd5b8335614969816155ae565b9250614977602085016145f6565b9150614941604085016145e2565b60008060408385031215614997578182fd5b82356001600160401b03808211156149ad578384fd5b818501915085601f8301126149c0578384fd5b813560206149cd8261530a565b6040516149da828261546c565b8381528281019150858301600585901b870184018b10156149f9578889fd5b8896505b84871015614a24578035614a10816155ae565b8352600196909601959183019183016149fd565b5096505086013592505080821115614a3a578283fd5b50614a47858286016144f0565b9150509250929050565b60008060208385031215614a63578182fd5b82356001600160401b03811115614a78578283fd5b614a84858286016144a7565b90969095509350505050565b600060208284031215614aa1578081fd5b5035919050565b60008060408385031215614aba578182fd5b823591506020830135614681816155ae565b600060208284031215614add578081fd5b8135612b1c816155c3565b600060208284031215614af9578081fd5b8151612b1c816155c3565b600060208284031215614b15578081fd5b81356001600160401b03811115614b2a578182fd5b614b3684828501614574565b949350505050565b600080600080600080600080610100898b031215614b5a578586fd5b614b63896145e2565b9750614b7160208a016145e2565b965060408901359550614b8660608a016145e2565b945060808901356001600160401b03811115614ba0578384fd5b614bac8b828c01614574565b94505060a0890135614bbd816155ae565b9250614bcb60c08a016145e2565b9150614bd960e08a016145e2565b90509295985092959890939650565b600060208284031215614bf9578081fd5b612b1c826145f6565b60008060408385031215614c14578182fd5b614671836145f6565b600080600060608486031215614c31578081fd5b614c3a846145f6565b92506020840135614933816155ae565b600080600060408486031215614c5e578081fd5b614c67846145f6565b925060208401356001600160401b03811115614c81578182fd5b614c8d868287016144a7565b9497909650939450505050565b60008060408385031215614cac578182fd5b6148a9836145f6565b60008060008060008060008060008060006101608c8e031215614cd6578485fd5b614cdf8c6145f6565b9a50614ced60208d01614564565b9950614cfb60408d01614564565b9850614d0960608d016145e2565b9750614d1760808d016145e2565b965060a08c01359550614d2c60c08d016145e2565b945060e08c01356001600160401b03811115614d46578384fd5b614d528e828f01614574565b9450506101008c0135614d64816155ae565b9250614d736101208d016145e2565b9150614d826101408d016145e2565b90509295989b509295989b9093969950565b60008060408385031215614da6578182fd5b614daf836145f6565b91506148b7602084016145e2565b6000815180845260208085019450808401835b83811015614dec57815187529582019590820190600101614dd0565b509495945050505050565b60008151808452614e0f8160208601602086016153ee565b601f01601f19169290920160200192915050565b600083516020614e3682858389016153ee565b8454918401918390600181811c9080831680614e5357607f831692505b858310811415614e7157634e487b7160e01b88526022600452602488fd5b808015614e855760018114614e9657614ec2565b60ff19851688528388019550614ec2565b60008b815260209020895b85811015614eba5781548a820152908401908801614ea1565b505083880195505b50939a9950505050505050505050565b60007f416363657373436f6e74726f6c3a206163636f756e742000000000000000000082528351614f0a8160178501602088016153ee565b7001034b99036b4b9b9b4b733903937b6329607d1b6017918401918201528351614f3b8160288401602088016153ee565b01602801949350505050565b6001600160a01b0386811682528516602082015260a060408201819052600090614f7390830186614dbd565b8281036060840152614f858186614dbd565b90508281036080840152614f998185614df7565b98975050505050505050565b6001600160a01b03868116825285166020820152604081018490526060810183905260a060808201819052600090614fdf90830184614df7565b979650505050505050565b600060208252612b1c6020830184614dbd565b6000604082526150106040830185614dbd565b82810360208401526150228185614dbd565b95945050505050565b60408101818360005b600281101561505957815163ffffffff16835260209283019290910190600101615034565b50505092915050565b600060208252612b1c6020830184614df7565b60208082526028908201527f455243313135353a204552433131353552656365697665722072656a656374656040820152676420746f6b656e7360c01b606082015260800190565b6020808252601690820152754572723a204e6f7420726571756972656420726f6c6560501b604082015260600190565b60208082526024908201527f455243313135353a206275726e20616d6f756e7420657863656564732062616c604082015263616e636560e01b606082015260800190565b60208082526029908201527f455243313135353a2063616c6c6572206973206e6f74206f776e6572206e6f7260408201526808185c1c1c9bdd995960ba1b606082015260800190565b60208082526025908201527f455243313135353a207472616e7366657220746f20746865207a65726f206164604082015264647265737360d81b606082015260800190565b60208082526023908201527f455243313135353a206275726e2066726f6d20746865207a65726f206164647260408201526265737360e81b606082015260800190565b6020808252602a908201527f455243313135353a20696e73756666696369656e742062616c616e636520666f60408201526939103a3930b739b332b960b11b606082015260800190565b6020808252818101527f4f776e61626c653a2063616c6c6572206973206e6f7420746865206f776e6572604082015260600190565b60208082526028908201527f455243313135353a2069647320616e6420616d6f756e7473206c656e677468206040820152670dad2e6dac2e8c6d60c31b606082015260800190565b60208082526021908201527f455243313135353a206d696e7420746f20746865207a65726f206164647265736040820152607360f81b606082015260800190565b60006001600160401b03821115615323576153236154f0565b5060051b60200190565b60008219821115615340576153406154da565b500190565b60006001600160401b03808316818516808303821115615367576153676154da565b01949350505050565b60008261538b57634e487b7160e01b81526012600452602481fd5b500490565b60008160001904831182151516156153aa576153aa6154da565b500290565b6000828210156153c1576153c16154da565b500390565b60006001600160401b03838116908316818110156153e6576153e66154da565b039392505050565b60005b838110156154095781810151838201526020016153f1565b838111156110e85750506000910152565b600081615429576154296154da565b506000190190565b600181811c9082168061544557607f821691505b6020821081141561546657634e487b7160e01b600052602260045260246000fd5b50919050565b601f8201601f191681016001600160401b0381118282101715615491576154916154f0565b6040525050565b60006000198214156154ac576154ac6154da565b5060010190565b60006001600160401b03808316818114156154d0576154d06154da565b6001019392505050565b634e487b7160e01b600052601160045260246000fd5b634e487b7160e01b600052604160045260246000fd5b600060033d1115610fc557600481823e5160e01c90565b600060443d101561552d57610fc5565b6040516003193d81016004833e81513d6001600160401b03816024840111818411171561555e575050505050610fc5565b828501915081518181111561557857505050505050610fc5565b843d870101602082850101111561559457505050505050610fc5565b6155a36020828601018761546c565b509094505050505090565b6001600160a01b0381168114610eb357600080fd5b6001600160e01b031981168114610eb357600080fdfe4504b9dfd7400a1522f49a8b4a100552da9236849581fd59b7363eb48c6a474ca2646970667358221220cc7d79b09da720dd0bef185c8afc5cc3a5f922041be1b6e4eaff4948a17c198964736f6c63430008030033",
  "linkReferences": {},
  "deployedLinkReferences": {}
}